{
  "contracts/DarkForestCore.sol": {
    "DarkForestCore": {
      "abi": [
        {
          "inputs": [],
          "stateMutability": "nonpayable",
          "type": "constructor"
        },
        {
          "inputs": [
            {
              "internalType": "uint256",
              "name": "key",
              "type": "uint256"
            }
          ],
          "name": "planets",
          "outputs": [
            {
              "components": [
                {
                  "internalType": "address",
                  "name": "owner",
                  "type": "address"
                },
                {
                  "internalType": "bool",
                  "name": "isHomePlanet",
                  "type": "bool"
                }
              ],
              "internalType": "struct DarkForestUtils.Planet",
              "name": "",
              "type": "tuple"
            }
          ],
          "stateMutability": "view",
          "type": "function"
        },
        {
          "inputs": [],
          "name": "s",
          "outputs": [
            {
              "components": [
                {
                  "internalType": "uint256",
                  "name": "PLANETHASH_KEY",
                  "type": "uint256"
                }
              ],
              "internalType": "struct DarkForestUtils.SnarkConstants",
              "name": "snarkConstants",
              "type": "tuple"
            }
          ],
          "stateMutability": "view",
          "type": "function"
        },
        {
          "inputs": [],
          "name": "snarkConstants",
          "outputs": [
            {
              "components": [
                {
                  "internalType": "uint256",
                  "name": "PLANETHASH_KEY",
                  "type": "uint256"
                }
              ],
              "internalType": "struct DarkForestUtils.SnarkConstants",
              "name": "",
              "type": "tuple"
            }
          ],
          "stateMutability": "view",
          "type": "function"
        }
      ],
      "evm": {
        "bytecode": {
          "linkReferences": {},
          "object": "608060405234801561001057600080fd5b50604080518082018252338152600160208083018281527f0b8f3e5cb1e0519c520b88073ab3be1313af840e2f2682ba2e77c948b27bcb8a6000908152825292517f190130b61c65d0bc84a5bab3064c7d963327e80b54c17dbf4714f663cc5f2678805494511515600160a01b026001600160a81b03199095166001600160a01b0392909216919091179390931790925582519182019092527f04c06f1329eb7d8e37e558c329a5ffc2b896718ab7dd897b7d45feae09a285d7908190529055610160806100df6000396000f3fe608060405234801561001057600080fd5b50600436106100415760003560e01c806326c1e7501461004657806351baf19e146100f757806386b714e214610124575b600080fd5b6100bf61005436600461013b565b6040805180820190915260008082526020820152506000908152602081815260409182902082518084019093525473ffffffffffffffffffffffffffffffffffffffff8116835274010000000000000000000000000000000000000000900460ff1615159082015290565b60408051825173ffffffffffffffffffffffffffffffffffffffff168152602092830151151592810192909252015b60405180910390f35b60408051602080820183526000909152815190810190915260015481525b604051905181526020016100ee565b604080516020810190915260015481526101159081565b60006020828403121561014c578081fd5b503591905056fea164736f6c6343000803000a",
          "opcodes": "PUSH1 0x80 PUSH1 0x40 MSTORE CALLVALUE DUP1 ISZERO PUSH2 0x10 JUMPI PUSH1 0x0 DUP1 REVERT JUMPDEST POP PUSH1 0x40 DUP1 MLOAD DUP1 DUP3 ADD DUP3 MSTORE CALLER DUP2 MSTORE PUSH1 0x1 PUSH1 0x20 DUP1 DUP4 ADD DUP3 DUP2 MSTORE PUSH32 0xB8F3E5CB1E0519C520B88073AB3BE1313AF840E2F2682BA2E77C948B27BCB8A PUSH1 0x0 SWAP1 DUP2 MSTORE DUP3 MSTORE SWAP3 MLOAD PUSH32 0x190130B61C65D0BC84A5BAB3064C7D963327E80B54C17DBF4714F663CC5F2678 DUP1 SLOAD SWAP5 MLOAD ISZERO ISZERO PUSH1 0x1 PUSH1 0xA0 SHL MUL PUSH1 0x1 PUSH1 0x1 PUSH1 0xA8 SHL SUB NOT SWAP1 SWAP6 AND PUSH1 0x1 PUSH1 0x1 PUSH1 0xA0 SHL SUB SWAP3 SWAP1 SWAP3 AND SWAP2 SWAP1 SWAP2 OR SWAP4 SWAP1 SWAP4 OR SWAP1 SWAP3 SSTORE DUP3 MLOAD SWAP2 DUP3 ADD SWAP1 SWAP3 MSTORE PUSH32 0x4C06F1329EB7D8E37E558C329A5FFC2B896718AB7DD897B7D45FEAE09A285D7 SWAP1 DUP2 SWAP1 MSTORE SWAP1 SSTORE PUSH2 0x160 DUP1 PUSH2 0xDF PUSH1 0x0 CODECOPY PUSH1 0x0 RETURN INVALID PUSH1 0x80 PUSH1 0x40 MSTORE CALLVALUE DUP1 ISZERO PUSH2 0x10 JUMPI PUSH1 0x0 DUP1 REVERT JUMPDEST POP PUSH1 0x4 CALLDATASIZE LT PUSH2 0x41 JUMPI PUSH1 0x0 CALLDATALOAD PUSH1 0xE0 SHR DUP1 PUSH4 0x26C1E750 EQ PUSH2 0x46 JUMPI DUP1 PUSH4 0x51BAF19E EQ PUSH2 0xF7 JUMPI DUP1 PUSH4 0x86B714E2 EQ PUSH2 0x124 JUMPI JUMPDEST PUSH1 0x0 DUP1 REVERT JUMPDEST PUSH2 0xBF PUSH2 0x54 CALLDATASIZE PUSH1 0x4 PUSH2 0x13B JUMP JUMPDEST PUSH1 0x40 DUP1 MLOAD DUP1 DUP3 ADD SWAP1 SWAP2 MSTORE PUSH1 0x0 DUP1 DUP3 MSTORE PUSH1 0x20 DUP3 ADD MSTORE POP PUSH1 0x0 SWAP1 DUP2 MSTORE PUSH1 0x20 DUP2 DUP2 MSTORE PUSH1 0x40 SWAP2 DUP3 SWAP1 KECCAK256 DUP3 MLOAD DUP1 DUP5 ADD SWAP1 SWAP4 MSTORE SLOAD PUSH20 0xFFFFFFFFFFFFFFFFFFFFFFFFFFFFFFFFFFFFFFFF DUP2 AND DUP4 MSTORE PUSH21 0x10000000000000000000000000000000000000000 SWAP1 DIV PUSH1 0xFF AND ISZERO ISZERO SWAP1 DUP3 ADD MSTORE SWAP1 JUMP JUMPDEST PUSH1 0x40 DUP1 MLOAD DUP3 MLOAD PUSH20 0xFFFFFFFFFFFFFFFFFFFFFFFFFFFFFFFFFFFFFFFF AND DUP2 MSTORE PUSH1 0x20 SWAP3 DUP4 ADD MLOAD ISZERO ISZERO SWAP3 DUP2 ADD SWAP3 SWAP1 SWAP3 MSTORE ADD JUMPDEST PUSH1 0x40 MLOAD DUP1 SWAP2 SUB SWAP1 RETURN JUMPDEST PUSH1 0x40 DUP1 MLOAD PUSH1 0x20 DUP1 DUP3 ADD DUP4 MSTORE PUSH1 0x0 SWAP1 SWAP2 MSTORE DUP2 MLOAD SWAP1 DUP2 ADD SWAP1 SWAP2 MSTORE PUSH1 0x1 SLOAD DUP2 MSTORE JUMPDEST PUSH1 0x40 MLOAD SWAP1 MLOAD DUP2 MSTORE PUSH1 0x20 ADD PUSH2 0xEE JUMP JUMPDEST PUSH1 0x40 DUP1 MLOAD PUSH1 0x20 DUP2 ADD SWAP1 SWAP2 MSTORE PUSH1 0x1 SLOAD DUP2 MSTORE PUSH2 0x115 SWAP1 DUP2 JUMP JUMPDEST PUSH1 0x0 PUSH1 0x20 DUP3 DUP5 SUB SLT ISZERO PUSH2 0x14C JUMPI DUP1 DUP2 REVERT JUMPDEST POP CALLDATALOAD SWAP2 SWAP1 POP JUMP INVALID LOG1 PUSH5 0x736F6C6343 STOP ADDMOD SUB STOP EXP "
        },
        "methodIdentifiers": {
          "planets(uint256)": "26c1e750",
          "s()": "86b714e2",
          "snarkConstants()": "51baf19e"
        }
      }
    }
  }
}