{
  "_format": "hh-sol-artifact-1",
  "contractName": "Getters",
  "sourceName": "contracts/Getters.sol",
  "abi": [
    {
      "inputs": [
        {
          "internalType": "address",
          "name": "_coreContractAddress",
          "type": "address"
        }
      ],
      "stateMutability": "nonpayable",
      "type": "constructor"
    },
    {
      "inputs": [
        {
          "internalType": "uint256",
          "name": "tokenId",
          "type": "uint256"
        }
      ],
      "name": "getCiphertext",
      "outputs": [
        {
          "internalType": "uint256[2]",
          "name": "",
          "type": "uint256[2]"
        }
      ],
      "stateMutability": "view",
      "type": "function"
    },
    {
      "inputs": [],
      "name": "getContents",
      "outputs": [
        {
          "components": [
            {
              "internalType": "uint256",
              "name": "id",
              "type": "uint256"
            },
            {
              "internalType": "string",
              "name": "url",
              "type": "string"
            },
            {
              "internalType": "string",
              "name": "property",
              "type": "string"
            },
            {
              "internalType": "uint256",
              "name": "keyHash",
              "type": "uint256"
            },
            {
              "internalType": "address",
              "name": "creator",
              "type": "address"
            },
            {
              "internalType": "uint256",
              "name": "price",
              "type": "uint256"
            },
            {
              "internalType": "string",
              "name": "zk",
              "type": "string"
            }
          ],
          "internalType": "struct ContractStorage.Content[]",
          "name": "",
          "type": "tuple[]"
        }
      ],
      "stateMutability": "view",
      "type": "function"
    },
    {
      "inputs": [
        {
          "internalType": "uint256",
          "name": "id",
          "type": "uint256"
        }
      ],
      "name": "getCreator",
      "outputs": [
        {
          "internalType": "address",
          "name": "",
          "type": "address"
        }
      ],
      "stateMutability": "view",
      "type": "function"
    },
    {
      "inputs": [],
      "name": "getHashSalt",
      "outputs": [
        {
          "internalType": "uint256",
          "name": "",
          "type": "uint256"
        }
      ],
      "stateMutability": "view",
      "type": "function"
    },
    {
      "inputs": [],
      "name": "getProperties",
      "outputs": [
        {
          "internalType": "string[]",
          "name": "",
          "type": "string[]"
        }
      ],
      "stateMutability": "view",
      "type": "function"
    },
    {
      "inputs": [
        {
          "internalType": "uint256",
          "name": "id",
          "type": "uint256"
        }
      ],
      "name": "getProperty",
      "outputs": [
        {
          "internalType": "string",
          "name": "",
          "type": "string"
        }
      ],
      "stateMutability": "view",
      "type": "function"
    },
    {
      "inputs": [
        {
          "internalType": "address",
          "name": "_address",
          "type": "address"
        },
        {
          "internalType": "string",
          "name": "zk",
          "type": "string"
        }
      ],
      "name": "getPublicKey",
      "outputs": [
        {
          "internalType": "uint256[2]",
          "name": "publicKey",
          "type": "uint256[2]"
        }
      ],
      "stateMutability": "view",
      "type": "function"
    },
    {
      "inputs": [
        {
          "internalType": "uint256",
          "name": "tokenId",
          "type": "uint256"
        }
      ],
      "name": "getToken",
      "outputs": [
        {
          "components": [
            {
              "internalType": "uint256",
              "name": "id",
              "type": "uint256"
            },
            {
              "internalType": "uint256",
              "name": "contentId",
              "type": "uint256"
            },
            {
              "internalType": "uint256",
              "name": "ciphertext1",
              "type": "uint256"
            },
            {
              "internalType": "uint256",
              "name": "ciphertext2",
              "type": "uint256"
            },
            {
              "internalType": "bool",
              "name": "redeemed",
              "type": "bool"
            }
          ],
          "internalType": "struct ContractStorage.Token",
          "name": "",
          "type": "tuple"
        }
      ],
      "stateMutability": "view",
      "type": "function"
    },
    {
      "inputs": [
        {
          "internalType": "uint256",
          "name": "contentId",
          "type": "uint256"
        }
      ],
      "name": "getTokens",
      "outputs": [
        {
          "components": [
            {
              "internalType": "uint256",
              "name": "id",
              "type": "uint256"
            },
            {
              "internalType": "uint256",
              "name": "contentId",
              "type": "uint256"
            },
            {
              "internalType": "uint256",
              "name": "ciphertext1",
              "type": "uint256"
            },
            {
              "internalType": "uint256",
              "name": "ciphertext2",
              "type": "uint256"
            },
            {
              "internalType": "bool",
              "name": "redeemed",
              "type": "bool"
            }
          ],
          "internalType": "struct ContractStorage.Token[]",
          "name": "",
          "type": "tuple[]"
        }
      ],
      "stateMutability": "view",
      "type": "function"
    }
  ],
  "bytecode": "0x608060405234801561001057600080fd5b5060405161134338038061134383398101604081905261002f91610054565b600080546001600160a01b0319166001600160a01b0392909216919091179055610082565b600060208284031215610065578081fd5b81516001600160a01b038116811461007b578182fd5b9392505050565b6112b2806100916000396000f3fe608060405234801561001057600080fd5b50600436106100a35760003560e01c8063d3c9cc2611610076578063e4b50cb81161005b578063e4b50cb814610160578063ec0cfd0b14610180578063ff627e7714610195576100a3565b8063d3c9cc2614610115578063d48e638a14610135576100a3565b806323677ae2146100a857806332665ffb146100c65780634d75cd40146100e6578063618034f114610106575b600080fd5b6100b06101a8565b6040516100bd9190610ffa565b60405180910390f35b6100d96100d4366004610efe565b61041c565b6040516100bd9190611179565b6100f96100f4366004610c02565b6104a9565b6040516100bd9190611148565b604051600081526020016100bd565b610128610123366004610efe565b61053c565b6040516100bd91906110cd565b610148610143366004610efe565b610754565b6040516001600160a01b0390911681526020016100bd565b61017361016e366004610efe565b6107df565b6040516100bd9190611193565b610188610895565b6040516100bd9190610f99565b6100f96101a3366004610efe565b610a4e565b6000805460408051636622cb4b60e11b81529051606093926001600160a01b03169163cc459696916004808301926020929190829003018186803b1580156101ef57600080fd5b505afa158015610203573d6000803e3d6000fd5b505050506040513d601f19601f820116820180604052508101906102279190610f16565b67ffffffffffffffff81111561024d57634e487b7160e01b600052604160045260246000fd5b6040519080825280602002602001820160405280156102c757816020015b6102b46040518060e001604052806000815260200160608152602001606081526020016000815260200160006001600160a01b0316815260200160008152602001606081525090565b81526020019060019003908161026b5790505b50905060005b60008054906101000a90046001600160a01b03166001600160a01b031663cc4596966040518163ffffffff1660e01b815260040160206040518083038186803b15801561031957600080fd5b505afa15801561032d573d6000803e3d6000fd5b505050506040513d601f19601f820116820180604052508101906103519190610f16565b811015610416576000546040516302deb55360e21b8152600481018390526001600160a01b0390911690630b7ad54c9060240160006040518083038186803b15801561039c57600080fd5b505afa1580156103b0573d6000803e3d6000fd5b505050506040513d6000823e601f3d908101601f191682016040526103d89190810190610dc3565b8282815181106103f857634e487b7160e01b600052603260045260246000fd5b6020026020010181905250808061040e90611246565b9150506102cd565b50905090565b6000546040516302deb55360e21b8152600481018390526060916001600160a01b031690630b7ad54c9060240160006040518083038186803b15801561046157600080fd5b505afa158015610475573d6000803e3d6000fd5b505050506040513d6000823e601f3d908101601f1916820160405261049d9190810190610dc3565b6040015190505b919050565b6104b1610b77565b600054604051630135d73560e61b81526001600160a01b0390911690634d75cd40906104e590879087908790600401610f5a565b604080518083038186803b1580156104fc57600080fd5b505afa158015610510573d6000803e3d6000fd5b505050506040513d601f19601f820116820180604052508101906105349190610c82565b949350505050565b6000805460405163057991d360e41b815260048101849052606092916001600160a01b0316906357991d309060240160006040518083038186803b15801561058357600080fd5b505afa158015610597573d6000803e3d6000fd5b505050506040513d6000823e601f3d908101601f191682016040526105bf9190810190610ce8565b805190915060008167ffffffffffffffff8111156105ed57634e487b7160e01b600052604160045260246000fd5b60405190808252806020026020018201604052801561065257816020015b61063f6040518060a00160405280600081526020016000815260200160008152602001600081526020016000151581525090565b81526020019060019003908161060b5790505b50905060005b8281101561074b5760005484516001600160a01b039091169063e4b50cb89086908490811061069757634e487b7160e01b600052603260045260246000fd5b60200260200101516040518263ffffffff1660e01b81526004016106bd91815260200190565b60a06040518083038186803b1580156106d557600080fd5b505afa1580156106e9573d6000803e3d6000fd5b505050506040513d601f19601f8201168201806040525081019061070d9190610ea3565b82828151811061072d57634e487b7160e01b600052603260045260246000fd5b6020026020010181905250808061074390611246565b915050610658565b50949350505050565b600080546040516302deb55360e21b8152600481018490526001600160a01b0390911690630b7ad54c9060240160006040518083038186803b15801561079957600080fd5b505afa1580156107ad573d6000803e3d6000fd5b505050506040513d6000823e601f3d908101601f191682016040526107d59190810190610dc3565b6080015192915050565b6108136040518060a00160405280600081526020016000815260200160008152602001600081526020016000151581525090565b600054604051631c96a19760e31b8152600481018490526001600160a01b039091169063e4b50cb89060240160a06040518083038186803b15801561085757600080fd5b505afa15801561086b573d6000803e3d6000fd5b505050506040513d601f19601f8201168201806040525081019061088f9190610ea3565b92915050565b6000805460408051636953828b60e11b81529051606093926001600160a01b03169163d2a70516916004808301926020929190829003018186803b1580156108dc57600080fd5b505afa1580156108f0573d6000803e3d6000fd5b505050506040513d601f19601f820116820180604052508101906109149190610f16565b905060008167ffffffffffffffff81111561093f57634e487b7160e01b600052604160045260246000fd5b60405190808252806020026020018201604052801561097257816020015b606081526020019060019003908161095d5790505b50905060015b828111610a47576000546040516332665ffb60e01b8152600481018390526001600160a01b03909116906332665ffb9060240160006040518083038186803b1580156109c357600080fd5b505afa1580156109d7573d6000803e3d6000fd5b505050506040513d6000823e601f3d908101601f191682016040526109ff9190810190610d90565b82610a0b6001846111ff565b81518110610a2957634e487b7160e01b600052603260045260246000fd5b60200260200101819052508080610a3f90611246565b915050610978565b5091505090565b610a56610b77565b60008054604051631c96a19760e31b8152600481018590526001600160a01b039091169063e4b50cb89060240160a06040518083038186803b158015610a9b57600080fd5b505afa158015610aaf573d6000803e3d6000fd5b505050506040513d601f19601f82011682018060405250810190610ad39190610ea3565b9050806080015115156001151514610b575760405162461bcd60e51b815260206004820152602960248201527f446174614d61726b6574706c616365436f72652f636970686572746578742d6e60448201527f6f742d706f737465640000000000000000000000000000000000000000000000606482015260840160405180910390fd5b610b5f610b77565b60408201518152606090910151602082015292915050565b60405180604001604052806002906020820280368337509192915050565b80516104a48161128d565b600082601f830112610bb0578081fd5b815167ffffffffffffffff811115610bca57610bca611277565b610bdd601f8201601f19166020016111ce565b818152846020838601011115610bf1578283fd5b610534826020830160208701611216565b600080600060408486031215610c16578283fd5b8335610c218161128d565b9250602084013567ffffffffffffffff80821115610c3d578384fd5b818601915086601f830112610c50578384fd5b813581811115610c5e578485fd5b876020828501011115610c6f578485fd5b6020830194508093505050509250925092565b600060408284031215610c93578081fd5b82601f830112610ca1578081fd5b610cab60406111ce565b808385604086011115610cbc578384fd5b835b6002811015610cdd578151845260209384019390910190600101610cbe565b509095945050505050565b60006020808385031215610cfa578182fd5b825167ffffffffffffffff80821115610d11578384fd5b818501915085601f830112610d24578384fd5b815181811115610d3657610d36611277565b8060051b9150610d478483016111ce565b8181528481019084860184860187018a1015610d61578788fd5b8795505b83861015610d83578051835260019590950194918601918601610d65565b5098975050505050505050565b600060208284031215610da1578081fd5b815167ffffffffffffffff811115610db7578182fd5b61053484828501610ba0565b600060208284031215610dd4578081fd5b815167ffffffffffffffff80821115610deb578283fd5b9083019060e08286031215610dfe578283fd5b610e0860e06111ce565b82518152602083015182811115610e1d578485fd5b610e2987828601610ba0565b602083015250604083015182811115610e40578485fd5b610e4c87828601610ba0565b60408301525060608301516060820152610e6860808401610b95565b608082015260a083015160a082015260c083015182811115610e88578485fd5b610e9487828601610ba0565b60c08301525095945050505050565b600060a08284031215610eb4578081fd5b610ebe60a06111ce565b8251815260208301516020820152604083015160408201526060830151606082015260808301518015158114610ef2578283fd5b60808201529392505050565b600060208284031215610f0f578081fd5b5035919050565b600060208284031215610f27578081fd5b5051919050565b60008151808452610f46816020860160208601611216565b601f01601f19169290920160200192915050565b60006001600160a01b03851682526040602083015282604083015282846060840137818301606090810191909152601f909201601f1916010192915050565b6000602080830181845280855180835260408601915060408160051b8701019250838701855b82811015610fed57603f19888603018452610fdb858351610f2e565b94509285019290850190600101610fbf565b5092979650505050505050565b60006020808301818452808551808352604092508286019150828160051b870101848801865b838110156110bf57603f19898403018552815160e08151855288820151818a87015261104e82870182610f2e565b91505087820151858203898701526110668282610f2e565b606084810151908801526080808501516001600160a01b03169088015260a0808501519088015260c0938401518782039488019490945291506110ab90508183610f2e565b968901969450505090860190600101611020565b509098975050505050505050565b6020808252825182820181905260009190848201906040850190845b8181101561113c57611129838551805182526020810151602083015260408101516040830152606081015160608301526080810151151560808301525050565b9284019260a092909201916001016110e9565b50909695505050505050565b60408101818360005b6002811015611170578151835260209283019290910190600101611151565b50505092915050565b60006020825261118c6020830184610f2e565b9392505050565b60a0810161088f8284805182526020810151602083015260408101516040830152606081015160608301526080810151151560808301525050565b604051601f8201601f1916810167ffffffffffffffff811182821017156111f7576111f7611277565b604052919050565b60008282101561121157611211611261565b500390565b60005b83811015611231578181015183820152602001611219565b83811115611240576000848401525b50505050565b600060001982141561125a5761125a611261565b5060010190565b634e487b7160e01b600052601160045260246000fd5b634e487b7160e01b600052604160045260246000fd5b6001600160a01b03811681146112a257600080fd5b5056fea164736f6c6343000803000a",
  "linkReferences": {},
  "deployedLinkReferences": {}
}