{
  "_format": "hh-sol-artifact-1",
  "contractName": "Core",
  "sourceName": "contracts/Core.sol",
  "abi": [
    {
      "inputs": [
        {
          "internalType": "uint256",
          "name": "cairoProgramHash",
          "type": "uint256"
        },
        {
          "internalType": "address",
          "name": "cairoVerifier",
          "type": "address"
        }
      ],
      "stateMutability": "nonpayable",
      "type": "constructor"
    },
    {
      "anonymous": false,
      "inputs": [
        {
          "indexed": true,
          "internalType": "address",
          "name": "owner",
          "type": "address"
        },
        {
          "indexed": true,
          "internalType": "address",
          "name": "approved",
          "type": "address"
        },
        {
          "indexed": true,
          "internalType": "uint256",
          "name": "tokenId",
          "type": "uint256"
        }
      ],
      "name": "Approval",
      "type": "event"
    },
    {
      "anonymous": false,
      "inputs": [
        {
          "indexed": true,
          "internalType": "address",
          "name": "owner",
          "type": "address"
        },
        {
          "indexed": true,
          "internalType": "address",
          "name": "operator",
          "type": "address"
        },
        {
          "indexed": false,
          "internalType": "bool",
          "name": "approved",
          "type": "bool"
        }
      ],
      "name": "ApprovalForAll",
      "type": "event"
    },
    {
      "anonymous": false,
      "inputs": [
        {
          "indexed": true,
          "internalType": "address",
          "name": "from",
          "type": "address"
        },
        {
          "indexed": true,
          "internalType": "address",
          "name": "to",
          "type": "address"
        },
        {
          "indexed": true,
          "internalType": "uint256",
          "name": "tokenId",
          "type": "uint256"
        }
      ],
      "name": "Transfer",
      "type": "event"
    },
    {
      "inputs": [
        {
          "internalType": "uint256",
          "name": "",
          "type": "uint256"
        }
      ],
      "name": "_idProperties",
      "outputs": [
        {
          "internalType": "string",
          "name": "",
          "type": "string"
        }
      ],
      "stateMutability": "view",
      "type": "function"
    },
    {
      "inputs": [],
      "name": "_propertyIds",
      "outputs": [
        {
          "internalType": "uint256",
          "name": "_value",
          "type": "uint256"
        }
      ],
      "stateMutability": "view",
      "type": "function"
    },
    {
      "inputs": [],
      "name": "_tokenIds",
      "outputs": [
        {
          "internalType": "uint256",
          "name": "_value",
          "type": "uint256"
        }
      ],
      "stateMutability": "view",
      "type": "function"
    },
    {
      "inputs": [
        {
          "internalType": "address",
          "name": "to",
          "type": "address"
        },
        {
          "internalType": "uint256",
          "name": "tokenId",
          "type": "uint256"
        }
      ],
      "name": "approve",
      "outputs": [],
      "stateMutability": "nonpayable",
      "type": "function"
    },
    {
      "inputs": [
        {
          "internalType": "address",
          "name": "owner",
          "type": "address"
        }
      ],
      "name": "balanceOf",
      "outputs": [
        {
          "internalType": "uint256",
          "name": "",
          "type": "uint256"
        }
      ],
      "stateMutability": "view",
      "type": "function"
    },
    {
      "inputs": [
        {
          "internalType": "uint256",
          "name": "contentId",
          "type": "uint256"
        },
        {
          "internalType": "uint256[2]",
          "name": "publicKey",
          "type": "uint256[2]"
        }
      ],
      "name": "buyToken",
      "outputs": [
        {
          "internalType": "bool",
          "name": "",
          "type": "bool"
        }
      ],
      "stateMutability": "payable",
      "type": "function"
    },
    {
      "inputs": [],
      "name": "contentCount",
      "outputs": [
        {
          "internalType": "uint256",
          "name": "",
          "type": "uint256"
        }
      ],
      "stateMutability": "view",
      "type": "function"
    },
    {
      "inputs": [
        {
          "internalType": "string",
          "name": "",
          "type": "string"
        }
      ],
      "name": "contentIds",
      "outputs": [
        {
          "internalType": "uint256",
          "name": "",
          "type": "uint256"
        }
      ],
      "stateMutability": "view",
      "type": "function"
    },
    {
      "inputs": [
        {
          "internalType": "uint256",
          "name": "",
          "type": "uint256"
        }
      ],
      "name": "contents",
      "outputs": [
        {
          "internalType": "uint256",
          "name": "id",
          "type": "uint256"
        },
        {
          "internalType": "string",
          "name": "url",
          "type": "string"
        },
        {
          "internalType": "string",
          "name": "property",
          "type": "string"
        },
        {
          "internalType": "uint256",
          "name": "keyHash",
          "type": "uint256"
        },
        {
          "internalType": "address",
          "name": "creator",
          "type": "address"
        },
        {
          "internalType": "uint256",
          "name": "price",
          "type": "uint256"
        },
        {
          "internalType": "string",
          "name": "zk",
          "type": "string"
        }
      ],
      "stateMutability": "view",
      "type": "function"
    },
    {
      "inputs": [
        {
          "internalType": "string",
          "name": "property",
          "type": "string"
        }
      ],
      "name": "createProperty",
      "outputs": [
        {
          "internalType": "uint256",
          "name": "id",
          "type": "uint256"
        }
      ],
      "stateMutability": "nonpayable",
      "type": "function"
    },
    {
      "inputs": [
        {
          "internalType": "uint256",
          "name": "tokenId",
          "type": "uint256"
        }
      ],
      "name": "getApproved",
      "outputs": [
        {
          "internalType": "address",
          "name": "",
          "type": "address"
        }
      ],
      "stateMutability": "view",
      "type": "function"
    },
    {
      "inputs": [
        {
          "internalType": "uint256",
          "name": "contentId",
          "type": "uint256"
        }
      ],
      "name": "getContent",
      "outputs": [
        {
          "components": [
            {
              "internalType": "uint256",
              "name": "id",
              "type": "uint256"
            },
            {
              "internalType": "string",
              "name": "url",
              "type": "string"
            },
            {
              "internalType": "string",
              "name": "property",
              "type": "string"
            },
            {
              "internalType": "uint256",
              "name": "keyHash",
              "type": "uint256"
            },
            {
              "internalType": "address",
              "name": "creator",
              "type": "address"
            },
            {
              "internalType": "uint256",
              "name": "price",
              "type": "uint256"
            },
            {
              "internalType": "string",
              "name": "zk",
              "type": "string"
            }
          ],
          "internalType": "struct ContractStorage.Content",
          "name": "",
          "type": "tuple"
        }
      ],
      "stateMutability": "view",
      "type": "function"
    },
    {
      "inputs": [],
      "name": "getNumOfProperties",
      "outputs": [
        {
          "internalType": "uint256",
          "name": "length",
          "type": "uint256"
        }
      ],
      "stateMutability": "view",
      "type": "function"
    },
    {
      "inputs": [
        {
          "internalType": "uint256",
          "name": "id",
          "type": "uint256"
        }
      ],
      "name": "getProperty",
      "outputs": [
        {
          "internalType": "string",
          "name": "",
          "type": "string"
        }
      ],
      "stateMutability": "view",
      "type": "function"
    },
    {
      "inputs": [
        {
          "internalType": "address",
          "name": "_address",
          "type": "address"
        },
        {
          "internalType": "string",
          "name": "zk",
          "type": "string"
        }
      ],
      "name": "getPublicKey",
      "outputs": [
        {
          "internalType": "uint256[2]",
          "name": "publicKey",
          "type": "uint256[2]"
        }
      ],
      "stateMutability": "view",
      "type": "function"
    },
    {
      "inputs": [
        {
          "internalType": "uint256",
          "name": "id",
          "type": "uint256"
        }
      ],
      "name": "getToken",
      "outputs": [
        {
          "components": [
            {
              "internalType": "uint256",
              "name": "id",
              "type": "uint256"
            },
            {
              "internalType": "uint256",
              "name": "contentId",
              "type": "uint256"
            },
            {
              "internalType": "uint256",
              "name": "ciphertext1",
              "type": "uint256"
            },
            {
              "internalType": "uint256",
              "name": "ciphertext2",
              "type": "uint256"
            },
            {
              "internalType": "bool",
              "name": "redeemed",
              "type": "bool"
            }
          ],
          "internalType": "struct ContractStorage.Token",
          "name": "",
          "type": "tuple"
        }
      ],
      "stateMutability": "view",
      "type": "function"
    },
    {
      "inputs": [
        {
          "internalType": "uint256",
          "name": "contentId",
          "type": "uint256"
        }
      ],
      "name": "getTokenIds",
      "outputs": [
        {
          "internalType": "uint256[]",
          "name": "",
          "type": "uint256[]"
        }
      ],
      "stateMutability": "view",
      "type": "function"
    },
    {
      "inputs": [],
      "name": "incrementProperty",
      "outputs": [
        {
          "internalType": "bool",
          "name": "",
          "type": "bool"
        }
      ],
      "stateMutability": "nonpayable",
      "type": "function"
    },
    {
      "inputs": [
        {
          "internalType": "address",
          "name": "owner",
          "type": "address"
        },
        {
          "internalType": "address",
          "name": "operator",
          "type": "address"
        }
      ],
      "name": "isApprovedForAll",
      "outputs": [
        {
          "internalType": "bool",
          "name": "",
          "type": "bool"
        }
      ],
      "stateMutability": "view",
      "type": "function"
    },
    {
      "inputs": [],
      "name": "name",
      "outputs": [
        {
          "internalType": "string",
          "name": "",
          "type": "string"
        }
      ],
      "stateMutability": "view",
      "type": "function"
    },
    {
      "inputs": [
        {
          "internalType": "uint256",
          "name": "tokenId",
          "type": "uint256"
        }
      ],
      "name": "ownerOf",
      "outputs": [
        {
          "internalType": "address",
          "name": "",
          "type": "address"
        }
      ],
      "stateMutability": "view",
      "type": "function"
    },
    {
      "inputs": [
        {
          "internalType": "string",
          "name": "url",
          "type": "string"
        },
        {
          "internalType": "uint256[2]",
          "name": "publicKey",
          "type": "uint256[2]"
        },
        {
          "internalType": "uint256",
          "name": "keyHash",
          "type": "uint256"
        },
        {
          "internalType": "string",
          "name": "property",
          "type": "string"
        },
        {
          "internalType": "uint256",
          "name": "price",
          "type": "uint256"
        },
        {
          "internalType": "string",
          "name": "zk",
          "type": "string"
        }
      ],
      "name": "postUrl",
      "outputs": [
        {
          "internalType": "bool",
          "name": "",
          "type": "bool"
        }
      ],
      "stateMutability": "nonpayable",
      "type": "function"
    },
    {
      "inputs": [
        {
          "internalType": "string",
          "name": "",
          "type": "string"
        }
      ],
      "name": "properties",
      "outputs": [
        {
          "internalType": "uint256",
          "name": "",
          "type": "uint256"
        }
      ],
      "stateMutability": "view",
      "type": "function"
    },
    {
      "inputs": [
        {
          "internalType": "address",
          "name": "",
          "type": "address"
        },
        {
          "internalType": "string",
          "name": "",
          "type": "string"
        },
        {
          "internalType": "uint256",
          "name": "",
          "type": "uint256"
        }
      ],
      "name": "publicKeys",
      "outputs": [
        {
          "internalType": "uint256",
          "name": "",
          "type": "uint256"
        }
      ],
      "stateMutability": "view",
      "type": "function"
    },
    {
      "inputs": [
        {
          "internalType": "uint256[2]",
          "name": "a",
          "type": "uint256[2]"
        },
        {
          "internalType": "uint256[2][2]",
          "name": "b",
          "type": "uint256[2][2]"
        },
        {
          "internalType": "uint256[2]",
          "name": "c",
          "type": "uint256[2]"
        },
        {
          "internalType": "uint256[5]",
          "name": "input",
          "type": "uint256[5]"
        },
        {
          "internalType": "uint256",
          "name": "tokenId",
          "type": "uint256"
        }
      ],
      "name": "redeem_snark",
      "outputs": [
        {
          "internalType": "bool",
          "name": "",
          "type": "bool"
        }
      ],
      "stateMutability": "nonpayable",
      "type": "function"
    },
    {
      "inputs": [
        {
          "internalType": "uint256[5]",
          "name": "input",
          "type": "uint256[5]"
        },
        {
          "internalType": "uint256",
          "name": "tokenId",
          "type": "uint256"
        }
      ],
      "name": "redeem_stark",
      "outputs": [
        {
          "internalType": "bool",
          "name": "",
          "type": "bool"
        }
      ],
      "stateMutability": "nonpayable",
      "type": "function"
    },
    {
      "inputs": [
        {
          "internalType": "address",
          "name": "from",
          "type": "address"
        },
        {
          "internalType": "address",
          "name": "to",
          "type": "address"
        },
        {
          "internalType": "uint256",
          "name": "tokenId",
          "type": "uint256"
        }
      ],
      "name": "safeTransferFrom",
      "outputs": [],
      "stateMutability": "nonpayable",
      "type": "function"
    },
    {
      "inputs": [
        {
          "internalType": "address",
          "name": "from",
          "type": "address"
        },
        {
          "internalType": "address",
          "name": "to",
          "type": "address"
        },
        {
          "internalType": "uint256",
          "name": "tokenId",
          "type": "uint256"
        },
        {
          "internalType": "bytes",
          "name": "_data",
          "type": "bytes"
        }
      ],
      "name": "safeTransferFrom",
      "outputs": [],
      "stateMutability": "nonpayable",
      "type": "function"
    },
    {
      "inputs": [
        {
          "internalType": "address",
          "name": "operator",
          "type": "address"
        },
        {
          "internalType": "bool",
          "name": "approved",
          "type": "bool"
        }
      ],
      "name": "setApprovalForAll",
      "outputs": [],
      "stateMutability": "nonpayable",
      "type": "function"
    },
    {
      "inputs": [
        {
          "internalType": "bytes4",
          "name": "interfaceId",
          "type": "bytes4"
        }
      ],
      "name": "supportsInterface",
      "outputs": [
        {
          "internalType": "bool",
          "name": "",
          "type": "bool"
        }
      ],
      "stateMutability": "view",
      "type": "function"
    },
    {
      "inputs": [],
      "name": "symbol",
      "outputs": [
        {
          "internalType": "string",
          "name": "",
          "type": "string"
        }
      ],
      "stateMutability": "view",
      "type": "function"
    },
    {
      "inputs": [
        {
          "internalType": "uint256",
          "name": "tokenId",
          "type": "uint256"
        }
      ],
      "name": "tokenURI",
      "outputs": [
        {
          "internalType": "string",
          "name": "",
          "type": "string"
        }
      ],
      "stateMutability": "view",
      "type": "function"
    },
    {
      "inputs": [
        {
          "internalType": "uint256",
          "name": "",
          "type": "uint256"
        }
      ],
      "name": "tokens",
      "outputs": [
        {
          "internalType": "uint256",
          "name": "id",
          "type": "uint256"
        },
        {
          "internalType": "uint256",
          "name": "contentId",
          "type": "uint256"
        },
        {
          "internalType": "uint256",
          "name": "ciphertext1",
          "type": "uint256"
        },
        {
          "internalType": "uint256",
          "name": "ciphertext2",
          "type": "uint256"
        },
        {
          "internalType": "bool",
          "name": "redeemed",
          "type": "bool"
        }
      ],
      "stateMutability": "view",
      "type": "function"
    },
    {
      "inputs": [
        {
          "internalType": "address",
          "name": "from",
          "type": "address"
        },
        {
          "internalType": "address",
          "name": "to",
          "type": "address"
        },
        {
          "internalType": "uint256",
          "name": "tokenId",
          "type": "uint256"
        }
      ],
      "name": "transferFrom",
      "outputs": [],
      "stateMutability": "nonpayable",
      "type": "function"
    }
  ],
  "bytecode": "0x60806040523480156200001157600080fd5b5060405162004e9138038062004e918339810160408190526200003491620002f4565b6040805180820182526004808252631d195cdd60e21b60208084018281528551808701909652928552840152815191929162000073916000916200024e565b508051620000899060019060208401906200024e565b5050506010829055601180546001600160a01b0319166001600160a01b0383161790556040805180820182526004808252630d0c2e6d60e31b602080840191909152835180850185529182526331363ab960e11b8282015283518085019094526002845261323360f11b908401529091620001048362000128565b50620001108262000128565b506200011c8162000128565b505050505050620003aa565b6000600d826040516200013c919062000331565b9081526020016040518091039020546000146200019f5760405162461bcd60e51b815260206004820152601760248201527f50726f706572747920616c726561647920657869737473000000000000000000604482015260640160405180910390fd5b620001a962000204565b506000620001b662000223565b905080600d84604051620001cb919062000331565b9081526040805160209281900383019020929092556000838152600e8252919091208451620001fd928601906200024e565b5092915050565b60006200021d600c6200024160201b6200221a1760201c565b50600190565b60006200023c600c6200024a60201b620022231760201c565b905090565b80546001019055565b5490565b8280546200025c906200036d565b90600052602060002090601f016020900481019282620002805760008555620002cb565b82601f106200029b57805160ff1916838001178555620002cb565b82800160010185558215620002cb579182015b82811115620002cb578251825591602001919060010190620002ae565b50620002d9929150620002dd565b5090565b5b80821115620002d95760008155600101620002de565b6000806040838503121562000307578182fd5b825160208401519092506001600160a01b038116811462000326578182fd5b809150509250929050565b60008251815b8181101562000353576020818601810151858301520162000337565b81811115620003625782828501525b509190910192915050565b600181811c908216806200038257607f821691505b60208210811415620003a457634e487b7160e01b600052602260045260246000fd5b50919050565b614ad780620003ba6000396000f3fe6080604052600436106102185760003560e01c806370a082311161011d578063b88d4fde116100b0578063d49ca5581161007f578063e4b50cb811610064578063e4b50cb814610685578063e985e9c5146106e9578063ec38d8ad1461073257610218565b8063d49ca55814610650578063e3720a511461066557610218565b8063b88d4fde146105e6578063c87b56dd14610606578063cc45969614610626578063d2a705161461063b57610218565b80639be8f2a6116100ec5780639be8f2a614610544578063a22cb4651461057c578063aa46a4001461059c578063b5ecf912146105b357610218565b806370a08231146104b7578063718b7643146104d7578063771133a3146104f757806395d89b411461052f57610218565b806323b872dd116101b05780634d75cd401161017f5780635274995d116101645780635274995d1461044a57806357991d301461046a5780636352211e1461049757610218565b80634d75cd40146103d35780634f64b2be1461040057610218565b806323b872dd1461036057806332665ffb146103805780633f0aac5c146103a057806342842e0e146103b357610218565b8063095ea7b3116101ec578063095ea7b3146102cc5780630b7ad54c146102ee57806311875ea61461031b57806314b514931461034957610218565b80624d4b481461021d57806301ffc9a71461025257806306fdde0314610272578063081812fc14610294575b600080fd5b34801561022957600080fd5b5061023d6102383660046143d7565b610752565b60405190151581526020015b60405180910390f35b34801561025e57600080fd5b5061023d61026d36600461441d565b610995565b34801561027e57600080fd5b506102876109e9565b6040516102499190614828565b3480156102a057600080fd5b506102b46102af366004614548565b610a7b565b6040516001600160a01b039091168152602001610249565b3480156102d857600080fd5b506102ec6102e73660046142f5565b610b10565b005b3480156102fa57600080fd5b5061030e610309366004614548565b610c26565b604051610249919061483b565b34801561032757600080fd5b5061033b610336366004614515565b610e9b565b604051908152602001610249565b34801561035557600080fd5b50600c5461033b9081565b34801561036c57600080fd5b506102ec61037b366004614165565b610f68565b34801561038c57600080fd5b5061028761039b366004614548565b610fef565b61023d6103ae366004614560565b611091565b3480156103bf57600080fd5b506102ec6103ce366004614165565b611360565b3480156103df57600080fd5b506103f36103ee36600461424f565b61137b565b6040516102499190614738565b34801561040c57600080fd5b5061042061041b366004614548565b6113ef565b6040805195865260208601949094529284019190915260608301521515608082015260a001610249565b34801561045657600080fd5b50610287610465366004614548565b611433565b34801561047657600080fd5b5061048a610485366004614548565b6114cd565b60405161024991906147e4565b3480156104a357600080fd5b506102b46104b2366004614548565b611599565b3480156104c357600080fd5b5061033b6104d2366004614119565b611624565b3480156104e357600080fd5b5061033b6104f23660046142a0565b6116be565b34801561050357600080fd5b5061033b610512366004614515565b805160208183018101805160078252928201919093012091525481565b34801561053b57600080fd5b506102876116fe565b34801561055057600080fd5b5061033b61055f366004614515565b8051602081830181018051600d8252928201919093012091525481565b34801561058857600080fd5b506102ec610597366004614219565b61170d565b3480156105a857600080fd5b5060095461033b9081565b3480156105bf57600080fd5b506105d36105ce366004614548565b6117df565b60405161024997969594939291906148ce565b3480156105f257600080fd5b506102ec6106013660046141a0565b6119d4565b34801561061257600080fd5b50610287610621366004614548565b611a62565b34801561063257600080fd5b5060085461033b565b34801561064757600080fd5b5061033b611bf6565b34801561065c57600080fd5b5061023d611c06565b34801561067157600080fd5b5061023d610680366004614455565b611c1c565b34801561069157600080fd5b506106a56106a0366004614548565b611f9e565b6040516102499190600060a0820190508251825260208301516020830152604083015160408301526060830151606083015260808301511515608083015292915050565b3480156106f557600080fd5b5061023d610704366004614133565b6001600160a01b03918216600090815260056020908152604080832093909416825291909152205460ff1690565b34801561073e57600080fd5b5061023d61074d36600461431e565b61204a565b600061075d82612227565b506000600a838154811061078157634e487b7160e01b600052603260045260246000fd5b600091825260208083206040805160a081018252600590940290910180548452600181015492840192909252600282015490830152600381015460608301526004015460ff161515608082015291506107d984611599565b9050610820858284602001516040518060400160405280600581526020017f737461726b0000000000000000000000000000000000000000000000000000008152506125b7565b5060008560405160200161083491906145d2565b60405160208183030381529060405280519060200120905060006010548260405160200161086c929190918252602082015260400190565b60408051808303601f19018152908290528051602090910120601154636a93856760e01b8352600483018290529092506001600160a01b031690636a9385679060240160206040518083038186803b1580156108c757600080fd5b505afa1580156108db573d6000803e3d6000fd5b505050506040513d601f19601f820116820180604052508101906108ff9190614401565b6109765760405162461bcd60e51b815260206004820152602760248201527f446174614d61726b6574706c616365436f72652f6d697373696e672d6361697260448201527f6f2d70726f6f660000000000000000000000000000000000000000000000000060648201526084015b60405180910390fd5b6109858685602001518961297d565b5060019450505050505b92915050565b60006001600160e01b031982166380ac58cd60e01b14806109c657506001600160e01b03198216635b5e139f60e01b145b806109e157506301ffc9a760e01b6001600160e01b03198316145b90505b919050565b6060600080546109f8906149f7565b80601f0160208091040260200160405190810160405280929190818152602001828054610a24906149f7565b8015610a715780601f10610a4657610100808354040283529160200191610a71565b820191906000526020600020905b815481529060010190602001808311610a5457829003601f168201915b5050505050905090565b6000818152600260205260408120546001600160a01b0316610af45760405162461bcd60e51b815260206004820152602c60248201527f4552433732313a20617070726f76656420717565727920666f72206e6f6e657860448201526b34b9ba32b73a103a37b5b2b760a11b606482015260840161096d565b506000908152600460205260409020546001600160a01b031690565b6000610b1b82611599565b9050806001600160a01b0316836001600160a01b03161415610b895760405162461bcd60e51b815260206004820152602160248201527f4552433732313a20617070726f76616c20746f2063757272656e74206f776e656044820152603960f91b606482015260840161096d565b336001600160a01b0382161480610ba55750610ba58133610704565b610c175760405162461bcd60e51b815260206004820152603860248201527f4552433732313a20617070726f76652063616c6c6572206973206e6f74206f7760448201527f6e6572206e6f7220617070726f76656420666f7220616c6c0000000000000000606482015260840161096d565b610c218383612d06565b505050565b610c6f6040518060e001604052806000815260200160608152602001606081526020016000815260200160006001600160a01b0316815260200160008152602001606081525090565b60088281548110610c9057634e487b7160e01b600052603260045260246000fd5b90600052602060002090600702016040518060e001604052908160008201548152602001600182018054610cc3906149f7565b80601f0160208091040260200160405190810160405280929190818152602001828054610cef906149f7565b8015610d3c5780601f10610d1157610100808354040283529160200191610d3c565b820191906000526020600020905b815481529060010190602001808311610d1f57829003601f168201915b50505050508152602001600282018054610d55906149f7565b80601f0160208091040260200160405190810160405280929190818152602001828054610d81906149f7565b8015610dce5780601f10610da357610100808354040283529160200191610dce565b820191906000526020600020905b815481529060010190602001808311610db157829003601f168201915b50505091835250506003820154602082015260048201546001600160a01b0316604082015260058201546060820152600682018054608090920191610e12906149f7565b80601f0160208091040260200160405190810160405280929190818152602001828054610e3e906149f7565b8015610e8b5780601f10610e6057610100808354040283529160200191610e8b565b820191906000526020600020905b815481529060010190602001808311610e6e57829003601f168201915b5050505050815250509050919050565b6000600d82604051610ead91906146b1565b908152602001604051809103902054600014610f0b5760405162461bcd60e51b815260206004820152601760248201527f50726f706572747920616c726561647920657869737473000000000000000000604482015260640161096d565b610f13611c06565b506000610f1e611bf6565b905080600d84604051610f3191906146b1565b9081526040805160209281900383019020929092556000838152600e8252919091208451610f6192860190613ebd565b5092915050565b610f723382612d74565b610fe45760405162461bcd60e51b815260206004820152603160248201527f4552433732313a207472616e736665722063616c6c6572206973206e6f74206f60448201527f776e6572206e6f7220617070726f766564000000000000000000000000000000606482015260840161096d565b610c21838383612e67565b6000818152600e6020526040902080546060919061100c906149f7565b80601f0160208091040260200160405190810160405280929190818152602001828054611038906149f7565b80156110855780601f1061105a57610100808354040283529160200191611085565b820191906000526020600020905b81548152906001019060200180831161106857829003601f168201915b50505050509050919050565b600080600884815481106110b557634e487b7160e01b600052603260045260246000fd5b90600052602060002090600702016040518060e0016040529081600082015481526020016001820180546110e8906149f7565b80601f0160208091040260200160405190810160405280929190818152602001828054611114906149f7565b80156111615780601f1061113657610100808354040283529160200191611161565b820191906000526020600020905b81548152906001019060200180831161114457829003601f168201915b5050505050815260200160028201805461117a906149f7565b80601f01602080910402602001604051908101604052809291908181526020018280546111a6906149f7565b80156111f35780601f106111c8576101008083540402835291602001916111f3565b820191906000526020600020905b8154815290600101906020018083116111d657829003601f168201915b50505091835250506003820154602082015260048201546001600160a01b0316604082015260058201546060820152600682018054608090920191611237906149f7565b80601f0160208091040260200160405190810160405280929190818152602001828054611263906149f7565b80156112b05780601f10611285576101008083540402835291602001916112b0565b820191906000526020600020905b81548152906001019060200180831161129357829003601f168201915b50505050508152505090508060a001513410156113355760405162461bcd60e51b815260206004820152602660248201527f446174614d61726b6574706c616365436f72652f696e73756666696369656e7460448201527f2d66756e64730000000000000000000000000000000000000000000000000000606482015260840161096d565b600033905061134981858460c0015161301b565b5061135481866130a7565b50600195945050505050565b610c21838383604051806020016040528060008152506119d4565b611383613f41565b6001600160a01b0384166000908152600f60205260409081902090516113ac9085908590614606565b9081526040805191829003602001822082820190915260028282826020028201915b8154815260200190600101908083116113ce57505050505090509392505050565b600a81815481106113ff57600080fd5b6000918252602090912060059091020180546001820154600283015460038401546004909401549294509092909160ff1685565b600e602052600090815260409020805461144c906149f7565b80601f0160208091040260200160405190810160405280929190818152602001828054611478906149f7565b80156114c55780601f1061149a576101008083540402835291602001916114c5565b820191906000526020600020905b8154815290600101906020018083116114a857829003601f168201915b505050505081565b6000818152600b602052604081206060916114e782613442565b905060008167ffffffffffffffff81111561151257634e487b7160e01b600052604160045260246000fd5b60405190808252806020026020018201604052801561153b578160200160208202803683370190505b50905060005b8281101561159057611553848261344c565b82828151811061157357634e487b7160e01b600052603260045260246000fd5b60209081029190910101528061158881614a32565b915050611541565b50949350505050565b6000818152600260205260408120546001600160a01b0316806109e15760405162461bcd60e51b815260206004820152602960248201527f4552433732313a206f776e657220717565727920666f72206e6f6e657869737460448201527f656e7420746f6b656e0000000000000000000000000000000000000000000000606482015260840161096d565b60006001600160a01b0382166116a25760405162461bcd60e51b815260206004820152602a60248201527f4552433732313a2062616c616e636520717565727920666f7220746865207a6560448201527f726f206164647265737300000000000000000000000000000000000000000000606482015260840161096d565b506001600160a01b031660009081526003602052604090205490565b600f602090815260008481526040902083518085018301805192815290830192850192909220915281600281106116f457600080fd5b0154925083915050565b6060600180546109f8906149f7565b6001600160a01b0382163314156117665760405162461bcd60e51b815260206004820152601960248201527f4552433732313a20617070726f766520746f2063616c6c657200000000000000604482015260640161096d565b3360008181526005602090815260408083206001600160a01b0387168085529252909120805460ff1916841515179055906001600160a01b03167f17307eab39ab6107e8899845ad3d59bd9653f200f220920489ca2b5937696c31836040516117d3911515815260200190565b60405180910390a35050565b600881815481106117ef57600080fd5b60009182526020909120600790910201805460018201805491935090611814906149f7565b80601f0160208091040260200160405190810160405280929190818152602001828054611840906149f7565b801561188d5780601f106118625761010080835404028352916020019161188d565b820191906000526020600020905b81548152906001019060200180831161187057829003601f168201915b5050505050908060020180546118a2906149f7565b80601f01602080910402602001604051908101604052809291908181526020018280546118ce906149f7565b801561191b5780601f106118f05761010080835404028352916020019161191b565b820191906000526020600020905b8154815290600101906020018083116118fe57829003601f168201915b505050600384015460048501546005860154600687018054969793966001600160a01b03909316955090935090611951906149f7565b80601f016020809104026020016040519081016040528092919081815260200182805461197d906149f7565b80156119ca5780601f1061199f576101008083540402835291602001916119ca565b820191906000526020600020905b8154815290600101906020018083116119ad57829003601f168201915b5050505050905087565b6119de3383612d74565b611a505760405162461bcd60e51b815260206004820152603160248201527f4552433732313a207472616e736665722063616c6c6572206973206e6f74206f60448201527f776e6572206e6f7220617070726f766564000000000000000000000000000000606482015260840161096d565b611a5c8484848461345f565b50505050565b6000818152600260205260409020546060906001600160a01b0316611aef5760405162461bcd60e51b815260206004820152603160248201527f45524337323155524953746f726167653a2055524920717565727920666f722060448201527f6e6f6e6578697374656e7420746f6b656e000000000000000000000000000000606482015260840161096d565b60008281526006602052604081208054611b08906149f7565b80601f0160208091040260200160405190810160405280929190818152602001828054611b34906149f7565b8015611b815780601f10611b5657610100808354040283529160200191611b81565b820191906000526020600020905b815481529060010190602001808311611b6457829003601f168201915b505050505090506000611b9f60408051602081019091526000815290565b9050805160001415611bb3575090506109e4565b815115611be5578082604051602001611bcd9291906146cd565b604051602081830303815290604052925050506109e4565b611bee846134e8565b949350505050565b6000611c01600c5490565b905090565b6000611c16600c80546001019055565b50600190565b600080805b600854811015611ca7578b8b604051611c3b929190614606565b604051809103902060088281548110611c6457634e487b7160e01b600052603260045260246000fd5b9060005260206000209060070201600101604051611c829190614616565b60405180910390201415611c9557600191505b80611c9f81614a32565b915050611c21565b508015611cf65760405162461bcd60e51b815260206004820152601e60248201527f446174614d61726b6574706c616365436f72652f75726c2d6578697374730000604482015260640161096d565b6000339050611d446040518060e001604052806000815260200160608152602001606081526020016000815260200160006001600160a01b0316815260200160008152602001606081525090565b6008548152604080516020601f8f018190048102820181019092528d8152908e908e908190840183828082843760009201919091525050505060208083019190915260408051601f8b01839004830281018301909152898152908a908a90819084018382808284376000920191909152505050506040808301919091526001600160a01b038316608083015260a08201889052606082018b905280516020601f8b01819004810282018101909252898152908a908a908190840183828082843760009201919091525050505060408083019190915280516020601f8801819004810282018101909252868152908790879081908401838280828437600092018290525060c0860194909452505060088054600181018255925250815160079091027ff3f7a9fe364faab93b216da50a3214154f22a0a2b415b23a84c8169e8b636ee381019182556020808401518051859493611ec6937ff3f7a9fe364faab93b216da50a3214154f22a0a2b415b23a84c8169e8b636ee4909101920190613ebd565b5060408201518051611ee2916002840191602090910190613ebd565b506060820151600382015560808201516004820180546001600160a01b0319166001600160a01b0390921691909117905560a0820151600582015560c08201518051611f38916006840191602090910190613ebd565b50508151611f4891508a8a6135dd565b50611f8a828c88888080601f01602080910402602001604051908101604052809392919081815260200183838082843760009201919091525061301b92505050565b5060019d9c50505050505050505050505050565b611fd26040518060a00160405280600081526020016000815260200160008152602001600081526020016000151581525090565b600a8281548110611ff357634e487b7160e01b600052603260045260246000fd5b60009182526020918290206040805160a0810182526005909302909101805483526001810154938301939093526002830154908201526003820154606082015260049091015460ff16151560808201529050919050565b600061205582612227565b506000600a838154811061207957634e487b7160e01b600052603260045260246000fd5b600091825260208083206040805160a081018252600590940290910180548452600181015492840192909252600282015490830152600381015460608301526004015460ff161515608082015291506120d184611599565b9050612118858284602001516040518060400160405280600581526020017f736e61726b0000000000000000000000000000000000000000000000000000008152506125b7565b5060405163c8c03ba360e01b815273__$6b78ae7bf09e0e72535be6401663f3a543$__9063c8c03ba390612156908b908b908b908b90600401614760565b60206040518083038186803b15801561216e57600080fd5b505af4158015612182573d6000803e3d6000fd5b505050506040513d601f19601f820116820180604052508101906121a69190614401565b6121fc5760405162461bcd60e51b815260206004820152602160248201527f446174614d61726b6574706c616365436f72652f70726f6f662d696e76616c696044820152601960fa1b606482015260840161096d565b61220b8483602001518761297d565b50600198975050505050505050565b80546001019055565b5490565b600080600a838154811061224b57634e487b7160e01b600052603260045260246000fd5b600091825260208083206040805160a0810182526005909402909101805484526001810154928401839052600281015491840191909152600381015460608401526004015460ff1615156080830152600880549294509181106122be57634e487b7160e01b600052603260045260246000fd5b90600052602060002090600702016040518060e0016040529081600082015481526020016001820180546122f1906149f7565b80601f016020809104026020016040519081016040528092919081815260200182805461231d906149f7565b801561236a5780601f1061233f5761010080835404028352916020019161236a565b820191906000526020600020905b81548152906001019060200180831161234d57829003601f168201915b50505050508152602001600282018054612383906149f7565b80601f01602080910402602001604051908101604052809291908181526020018280546123af906149f7565b80156123fc5780601f106123d1576101008083540402835291602001916123fc565b820191906000526020600020905b8154815290600101906020018083116123df57829003601f168201915b50505091835250506003820154602082015260048201546001600160a01b0316604082015260058201546060820152600682018054608090920191612440906149f7565b80601f016020809104026020016040519081016040528092919081815260200182805461246c906149f7565b80156124b95780601f1061248e576101008083540402835291602001916124b9565b820191906000526020600020905b81548152906001019060200180831161249c57829003601f168201915b5050505050815250509050336001600160a01b031681608001516001600160a01b0316146125355760405162461bcd60e51b8152602060048201526024808201527f446174614d61726b6574706c616365436f72652f696e636f72726563742d7365604482015263363632b960e11b606482015260840161096d565b6080820151156125ad5760405162461bcd60e51b815260206004820152602860248201527f446174614d61726b6574706c616365436f72652f4554482d616c72656164792d60448201527f72656465656d6564000000000000000000000000000000000000000000000000606482015260840161096d565b5060019392505050565b6001600160a01b0383166000908152600f602052604080822090518291906125e09085906146b1565b9081526040805191829003602001822082820190915260028282826020028201915b815481526020019060010190808311612602575050505050905060006008858154811061263f57634e487b7160e01b600052603260045260246000fd5b90600052602060002090600702016040518060e001604052908160008201548152602001600182018054612672906149f7565b80601f016020809104026020016040519081016040528092919081815260200182805461269e906149f7565b80156126eb5780601f106126c0576101008083540402835291602001916126eb565b820191906000526020600020905b8154815290600101906020018083116126ce57829003601f168201915b50505050508152602001600282018054612704906149f7565b80601f0160208091040260200160405190810160405280929190818152602001828054612730906149f7565b801561277d5780601f106127525761010080835404028352916020019161277d565b820191906000526020600020905b81548152906001019060200180831161276057829003601f168201915b50505091835250506003820154602082015260048201546001600160a01b03166040820152600582015460608201526006820180546080909201916127c1906149f7565b80601f01602080910402602001604051908101604052809291908181526020018280546127ed906149f7565b801561283a5780601f1061280f5761010080835404028352916020019161283a565b820191906000526020600020905b81548152906001019060200180831161281d57829003601f168201915b5050509190925250505060608101518851919250146128a65760405162461bcd60e51b815260206004820152602260248201527f446174614d61726b6574706c616365436f72652f696e636f72726563742d68616044820152610e6d60f31b606482015260840161096d565b815160608801511461290b5760405162461bcd60e51b815260206004820152602860248201527f446174614d61726b6574706c616365436f72652f696e636f72726563742d7075604482015267626c69632d6b657960c01b606482015260840161096d565b60208201516080880151146129735760405162461bcd60e51b815260206004820152602860248201527f446174614d61726b6574706c616365436f72652f696e636f72726563742d7075604482015267626c69632d6b657960c01b606482015260840161096d565b5050949350505050565b6000803390506000600885815481106129a657634e487b7160e01b600052603260045260246000fd5b90600052602060002090600702016040518060e0016040529081600082015481526020016001820180546129d9906149f7565b80601f0160208091040260200160405190810160405280929190818152602001828054612a05906149f7565b8015612a525780601f10612a2757610100808354040283529160200191612a52565b820191906000526020600020905b815481529060010190602001808311612a3557829003601f168201915b50505050508152602001600282018054612a6b906149f7565b80601f0160208091040260200160405190810160405280929190818152602001828054612a97906149f7565b8015612ae45780601f10612ab957610100808354040283529160200191612ae4565b820191906000526020600020905b815481529060010190602001808311612ac757829003601f168201915b50505091835250506003820154602082015260048201546001600160a01b0316604082015260058201546060820152600682018054608090920191612b28906149f7565b80601f0160208091040260200160405190810160405280929190818152602001828054612b54906149f7565b8015612ba15780601f10612b7657610100808354040283529160200191612ba1565b820191906000526020600020905b815481529060010190602001808311612b8457829003601f168201915b5050505050815250509050816001600160a01b03166108fc8260a001519081150290604051600060405180830381858888f19350505050158015612be9573d6000803e3d6000fd5b50612bf2613f41565b6020808601518252604086015190820152600a80546000919089908110612c2957634e487b7160e01b600052603260045260246000fd5b60009182526020918290206040805160a08101825260059390930290910180548352600180820154848601526002820154928401928352600390910154606084019081526080840191909152855190915291840151909152600a805491925082918a908110612ca857634e487b7160e01b600052603260045260246000fd5b60009182526020918290208351600592909202019081559082015160018083019190915560408301516002830155606083015160038301556080909201516004909101805460ff191691151591909117905598975050505050505050565b600081815260046020526040902080546001600160a01b0319166001600160a01b0384169081179091558190612d3b82611599565b6001600160a01b03167f8c5be1e5ebec7d5bd14f71427d1e84f3dd0314c0f7b2291e5b200ac8c7c3b92560405160405180910390a45050565b6000818152600260205260408120546001600160a01b0316612ded5760405162461bcd60e51b815260206004820152602c60248201527f4552433732313a206f70657261746f7220717565727920666f72206e6f6e657860448201526b34b9ba32b73a103a37b5b2b760a11b606482015260840161096d565b6000612df883611599565b9050806001600160a01b0316846001600160a01b03161480612e335750836001600160a01b0316612e2884610a7b565b6001600160a01b0316145b80611bee57506001600160a01b0380821660009081526005602090815260408083209388168352929052205460ff16611bee565b826001600160a01b0316612e7a82611599565b6001600160a01b031614612ef65760405162461bcd60e51b815260206004820152602960248201527f4552433732313a207472616e73666572206f6620746f6b656e2074686174206960448201527f73206e6f74206f776e0000000000000000000000000000000000000000000000606482015260840161096d565b6001600160a01b038216612f585760405162461bcd60e51b8152602060048201526024808201527f4552433732313a207472616e7366657220746f20746865207a65726f206164646044820152637265737360e01b606482015260840161096d565b612f63600082612d06565b6001600160a01b0383166000908152600360205260408120805460019290612f8c9084906149b4565b90915550506001600160a01b0382166000908152600360205260408120805460019290612fba908490614988565b909155505060008181526002602052604080822080546001600160a01b0319166001600160a01b0386811691821790925591518493918716917fddf252ad1be2c89b69c2b068fc378daa952ba7f163c4a11628f55a4df523b3ef91a4505050565b6001600160a01b0383166000908152600f602052604080822090516130419084906146b1565b908152604051908190036020019020600001546125ad576001600160a01b0384166000908152600f60205260409081902090518491906130829085906146b1565b90815260405190819003602001902061309c916002613f5f565b505060019392505050565b600a5460088054600092918391859081106130d257634e487b7160e01b600052603260045260246000fd5b90600052602060002090600702016040518060e001604052908160008201548152602001600182018054613105906149f7565b80601f0160208091040260200160405190810160405280929190818152602001828054613131906149f7565b801561317e5780601f106131535761010080835404028352916020019161317e565b820191906000526020600020905b81548152906001019060200180831161316157829003601f168201915b50505050508152602001600282018054613197906149f7565b80601f01602080910402602001604051908101604052809291908181526020018280546131c3906149f7565b80156132105780601f106131e557610100808354040283529160200191613210565b820191906000526020600020905b8154815290600101906020018083116131f357829003601f168201915b50505091835250506003820154602082015260048201546001600160a01b0316604082015260058201546060820152600682018054608090920191613254906149f7565b80601f0160208091040260200160405190810160405280929190818152602001828054613280906149f7565b80156132cd5780601f106132a2576101008083540402835291602001916132cd565b820191906000526020600020905b8154815290600101906020018083116132b057829003601f168201915b505050505081525050905061330c6040518060a00160405280600081526020016000815260200160008152602001600081526020016000151581525090565b828152602080820186905282516000908152600b9091526040902061333190846139a9565b50600a805460018101825560009190915281517fc65a7bb8d6351c1cf70c95a316cc6a92839c986682d98bc35f958f4883f9d2a860059092029182015560208201517fc65a7bb8d6351c1cf70c95a316cc6a92839c986682d98bc35f958f4883f9d2a982015560408201517fc65a7bb8d6351c1cf70c95a316cc6a92839c986682d98bc35f958f4883f9d2aa82015560608201517fc65a7bb8d6351c1cf70c95a316cc6a92839c986682d98bc35f958f4883f9d2ab82015560808201517fc65a7bb8d6351c1cf70c95a316cc6a92839c986682d98bc35f958f4883f9d2ac909101805460ff191691151591909117905561342b86846139b5565b613439838360200151613af7565b50505092915050565b60006109e1825490565b60006134588383613ba0565b9392505050565b61346a848484612e67565b61347684848484613bd8565b611a5c5760405162461bcd60e51b815260206004820152603260248201527f4552433732313a207472616e7366657220746f206e6f6e20455243373231526560448201527f63656976657220696d706c656d656e7465720000000000000000000000000000606482015260840161096d565b6000818152600260205260409020546060906001600160a01b03166135755760405162461bcd60e51b815260206004820152602f60248201527f4552433732314d657461646174613a2055524920717565727920666f72206e6f60448201527f6e6578697374656e7420746f6b656e0000000000000000000000000000000000606482015260840161096d565b600061358c60408051602081019091526000815290565b905060008151116135ac5760405180602001604052806000815250613458565b806135b684613d3b565b6040516020016135c79291906146cd565b6040516020818303038152906040529392505050565b600080600d84846040516135f2929190614606565b9081526020016040518091039020549050806000141561367a5760405162461bcd60e51b815260206004820152602b60248201527f446174614d61726b6574706c616365436f72652f70726f70657274792d646f6560448201527f732d6e6f742d6578697374000000000000000000000000000000000000000000606482015260840161096d565b60006008868154811061369d57634e487b7160e01b600052603260045260246000fd5b90600052602060002090600702016040518060e0016040529081600082015481526020016001820180546136d0906149f7565b80601f01602080910402602001604051908101604052809291908181526020018280546136fc906149f7565b80156137495780601f1061371e57610100808354040283529160200191613749565b820191906000526020600020905b81548152906001019060200180831161372c57829003601f168201915b50505050508152602001600282018054613762906149f7565b80601f016020809104026020016040519081016040528092919081815260200182805461378e906149f7565b80156137db5780601f106137b0576101008083540402835291602001916137db565b820191906000526020600020905b8154815290600101906020018083116137be57829003601f168201915b50505091835250506003820154602082015260048201546001600160a01b031660408201526005820154606082015260068201805460809092019161381f906149f7565b80601f016020809104026020016040519081016040528092919081815260200182805461384b906149f7565b80156138985780601f1061386d57610100808354040283529160200191613898565b820191906000526020600020905b81548152906001019060200180831161387b57829003601f168201915b505050505081525050905084848080601f0160208091040260200160405190810160405280939291908181526020018383808284376000920191909152505050506040820152600880548291908890811061390357634e487b7160e01b600052603260045260246000fd5b9060005260206000209060070201600082015181600001556020820151816001019080519060200190613937929190613ebd565b5060408201518051613953916002840191602090910190613ebd565b506060820151600382015560808201516004820180546001600160a01b0319166001600160a01b0390921691909117905560a0820151600582015560c0820151805161220b916006840191602090910190613ebd565b60006134588383613e6e565b6001600160a01b038216613a0b5760405162461bcd60e51b815260206004820181905260248201527f4552433732313a206d696e7420746f20746865207a65726f2061646472657373604482015260640161096d565b6000818152600260205260409020546001600160a01b031615613a705760405162461bcd60e51b815260206004820152601c60248201527f4552433732313a20746f6b656e20616c7265616479206d696e74656400000000604482015260640161096d565b6001600160a01b0382166000908152600360205260408120805460019290613a99908490614988565b909155505060008181526002602052604080822080546001600160a01b0319166001600160a01b03861690811790915590518392907fddf252ad1be2c89b69c2b068fc378daa952ba7f163c4a11628f55a4df523b3ef908290a45050565b6000828152600260205260409020546001600160a01b0316613b815760405162461bcd60e51b815260206004820152602e60248201527f45524337323155524953746f726167653a2055524920736574206f66206e6f6e60448201527f6578697374656e7420746f6b656e000000000000000000000000000000000000606482015260840161096d565b60008281526006602090815260409091208251610c2192840190613ebd565b6000826000018281548110613bc557634e487b7160e01b600052603260045260246000fd5b9060005260206000200154905092915050565b60006001600160a01b0384163b15613d3057604051630a85bd0160e11b81526001600160a01b0385169063150b7a0290613c1c9033908990889088906004016146fc565b602060405180830381600087803b158015613c3657600080fd5b505af1925050508015613c66575060408051601f3d908101601f19168201909252613c6391810190614439565b60015b613d16573d808015613c94576040519150601f19603f3d011682016040523d82523d6000602084013e613c99565b606091505b508051613d0e5760405162461bcd60e51b815260206004820152603260248201527f4552433732313a207472616e7366657220746f206e6f6e20455243373231526560448201527f63656976657220696d706c656d656e7465720000000000000000000000000000606482015260840161096d565b805181602001fd5b6001600160e01b031916630a85bd0160e11b149050611bee565b506001949350505050565b606081613d6057506040805180820190915260018152600360fc1b60208201526109e4565b8160005b8115613d8a5780613d7481614a32565b9150613d839050600a836149a0565b9150613d64565b60008167ffffffffffffffff811115613db357634e487b7160e01b600052604160045260246000fd5b6040519080825280601f01601f191660200182016040528015613ddd576020820181803683370190505b5090505b8415611bee57613df26001836149b4565b9150613dff600a86614a4d565b613e0a906030614988565b60f81b818381518110613e2d57634e487b7160e01b600052603260045260246000fd5b60200101907effffffffffffffffffffffffffffffffffffffffffffffffffffffffffffff1916908160001a905350613e67600a866149a0565b9450613de1565b6000818152600183016020526040812054613eb55750815460018181018455600084815260208082209093018490558454848252828601909352604090209190915561098f565b50600061098f565b828054613ec9906149f7565b90600052602060002090601f016020900481019282613eeb5760008555613f31565b82601f10613f0457805160ff1916838001178555613f31565b82800160010185558215613f31579182015b82811115613f31578251825591602001919060010190613f16565b50613f3d929150613f8c565b5090565b60405180604001604052806002906020820280368337509192915050565b8260028101928215613f315791602002820182811115613f31578251825591602001919060010190613f16565b5b80821115613f3d5760008155600101613f8d565b600067ffffffffffffffff831115613fbb57613fbb614a8d565b613fce601f8401601f1916602001614936565b9050828152838383011115613fe257600080fd5b828260208301376000602084830101529392505050565b80356001600160a01b03811681146109e457600080fd5b600082601f830112614020578081fd5b61402a6040614936565b80838560408601111561403b578384fd5b835b600281101561405c57813584526020938401939091019060010161403d565b509095945050505050565b600082601f830112614077578081fd5b61408160a0614936565b80838560a086011115614092578384fd5b835b600581101561405c578135845260209384019390910190600101614094565b60008083601f8401126140c4578182fd5b50813567ffffffffffffffff8111156140db578182fd5b6020830191508360208285010111156140f357600080fd5b9250929050565b600082601f83011261410a578081fd5b61345883833560208501613fa1565b60006020828403121561412a578081fd5b61345882613ff9565b60008060408385031215614145578081fd5b61414e83613ff9565b915061415c60208401613ff9565b90509250929050565b600080600060608486031215614179578081fd5b61418284613ff9565b925061419060208501613ff9565b9150604084013590509250925092565b600080600080608085870312156141b5578081fd5b6141be85613ff9565b93506141cc60208601613ff9565b925060408501359150606085013567ffffffffffffffff8111156141ee578182fd5b8501601f810187136141fe578182fd5b61420d87823560208401613fa1565b91505092959194509250565b6000806040838503121561422b578182fd5b61423483613ff9565b9150602083013561424481614aa3565b809150509250929050565b600080600060408486031215614263578283fd5b61426c84613ff9565b9250602084013567ffffffffffffffff811115614287578283fd5b614293868287016140b3565b9497909650939450505050565b6000806000606084860312156142b4578081fd5b6142bd84613ff9565b9250602084013567ffffffffffffffff8111156142d8578182fd5b6142e4868287016140fa565b925050604084013590509250925092565b60008060408385031215614307578182fd5b61431083613ff9565b946020939093013593505050565b60008060008060006101c08688031215614336578283fd5b6143408787614010565b9450604087605f880112614352578384fd5b600261436561436082614967565b614936565b80838a0160c08b018c811115614379578889fd5b885b858110156143a15761438d8e84614010565b85526020909401939186019160010161437b565b508299506143af8d82614010565b98505050505050506143c5876101008801614067565b949793965091946101a0013592915050565b60008060c083850312156143e9578182fd5b6143f38484614067565b9460a0939093013593505050565b600060208284031215614412578081fd5b815161345881614aa3565b60006020828403121561442e578081fd5b813561345881614ab4565b60006020828403121561444a578081fd5b815161345881614ab4565b600080600080600080600080600060e08a8c031215614472578687fd5b893567ffffffffffffffff80821115614489578889fd5b6144958d838e016140b3565b909b5099508991506144aa8d60208e01614010565b985060608c0135975060808c01359150808211156144c6578586fd5b6144d28d838e016140b3565b909750955060a08c0135945060c08c01359150808211156144f1578384fd5b506144fe8c828d016140b3565b915080935050809150509295985092959850929598565b600060208284031215614526578081fd5b813567ffffffffffffffff81111561453c578182fd5b611bee848285016140fa565b600060208284031215614559578081fd5b5035919050565b60008060608385031215614572578182fd5b8235915061415c8460208501614010565b8060005b6002811015611a5c578151845260209384019390910190600101614587565b600081518084526145be8160208601602086016149cb565b601f01601f19169290920160200192915050565b60008183825b60058110156145f75781518352602092830192909101906001016145d8565b50505060a08201905092915050565b6000828483379101908152919050565b600080835482600182811c91508083168061463257607f831692505b602080841082141561465257634e487b7160e01b87526022600452602487fd5b8180156146665760018114614677576146a3565b60ff198616895284890196506146a3565b60008a815260209020885b8681101561469b5781548b820152908501908301614682565b505084890196505b509498975050505050505050565b600082516146c38184602087016149cb565b9190910192915050565b600083516146df8184602088016149cb565b8351908301906146f38183602088016149cb565b01949350505050565b60006001600160a01b0380871683528086166020840152508360408301526080606083015261472e60808301846145a6565b9695505050505050565b60408101818360005b6002811015613439578151835260209283019290910190600101614741565b6101a0810161476f8287614583565b60408083018660005b600281101561479f5761478c838351614583565b9183019160209190910190600101614778565b505050506147b060c0830185614583565b61010082018360005b60058110156147d85781518352602092830192909101906001016147b9565b50505095945050505050565b6020808252825182820181905260009190848201906040850190845b8181101561481c57835183529284019291840191600101614800565b50909695505050505050565b60006020825261345860208301846145a6565b60006020825282516020830152602083015160e060408401526148626101008401826145a6565b90506040840151601f198085840301606086015261488083836145a6565b9250606086015160808601526001600160a01b0360808701511660a086015260a086015160c086015260c08601519150808584030160e0860152506148c582826145a6565b95945050505050565b600088825260e060208301526148e760e08301896145a6565b82810360408401526148f981896145a6565b90508660608401526001600160a01b03861660808401528460a084015282810360c084015261492881856145a6565b9a9950505050505050505050565b604051601f8201601f1916810167ffffffffffffffff8111828210171561495f5761495f614a8d565b604052919050565b600067ffffffffffffffff82111561498157614981614a8d565b5060051b90565b6000821982111561499b5761499b614a61565b500190565b6000826149af576149af614a77565b500490565b6000828210156149c6576149c6614a61565b500390565b60005b838110156149e65781810151838201526020016149ce565b83811115611a5c5750506000910152565b600181811c90821680614a0b57607f821691505b60208210811415614a2c57634e487b7160e01b600052602260045260246000fd5b50919050565b6000600019821415614a4657614a46614a61565b5060010190565b600082614a5c57614a5c614a77565b500690565b634e487b7160e01b600052601160045260246000fd5b634e487b7160e01b600052601260045260246000fd5b634e487b7160e01b600052604160045260246000fd5b8015158114614ab157600080fd5b50565b6001600160e01b031981168114614ab157600080fdfea164736f6c6343000803000a",
  "linkReferences": {
    "contracts/Verifier.sol": {
      "Verifier": [
        {
          "length": 20,
          "start": 9442
        }
      ]
    }
  },
  "deployedLinkReferences": {
    "contracts/Verifier.sol": {
      "Verifier": [
        {
          "length": 20,
          "start": 8488
        }
      ]
    }
  }
}