{
  "_format": "hh-sol-artifact-1",
  "contractName": "ContractStorage",
  "sourceName": "contracts/ContractStorage.sol",
  "abi": [
    {
      "inputs": [
        {
          "internalType": "uint256",
          "name": "",
          "type": "uint256"
        }
      ],
      "name": "_idProperties",
      "outputs": [
        {
          "internalType": "string",
          "name": "",
          "type": "string"
        }
      ],
      "stateMutability": "view",
      "type": "function"
    },
    {
      "inputs": [],
      "name": "_propertyIds",
      "outputs": [
        {
          "internalType": "uint256",
          "name": "_value",
          "type": "uint256"
        }
      ],
      "stateMutability": "view",
      "type": "function"
    },
    {
      "inputs": [],
      "name": "_tokenIds",
      "outputs": [
        {
          "internalType": "uint256",
          "name": "_value",
          "type": "uint256"
        }
      ],
      "stateMutability": "view",
      "type": "function"
    },
    {
      "inputs": [],
      "name": "contentCount",
      "outputs": [
        {
          "internalType": "uint256",
          "name": "",
          "type": "uint256"
        }
      ],
      "stateMutability": "view",
      "type": "function"
    },
    {
      "inputs": [
        {
          "internalType": "string",
          "name": "",
          "type": "string"
        }
      ],
      "name": "contentIds",
      "outputs": [
        {
          "internalType": "uint256",
          "name": "",
          "type": "uint256"
        }
      ],
      "stateMutability": "view",
      "type": "function"
    },
    {
      "inputs": [
        {
          "internalType": "uint256",
          "name": "",
          "type": "uint256"
        }
      ],
      "name": "contents",
      "outputs": [
        {
          "internalType": "uint256",
          "name": "id",
          "type": "uint256"
        },
        {
          "internalType": "string",
          "name": "url",
          "type": "string"
        },
        {
          "internalType": "string",
          "name": "property",
          "type": "string"
        },
        {
          "internalType": "uint256",
          "name": "keyHash",
          "type": "uint256"
        },
        {
          "internalType": "address",
          "name": "creator",
          "type": "address"
        },
        {
          "internalType": "uint256",
          "name": "price",
          "type": "uint256"
        },
        {
          "internalType": "string",
          "name": "zk",
          "type": "string"
        }
      ],
      "stateMutability": "view",
      "type": "function"
    },
    {
      "inputs": [
        {
          "internalType": "uint256",
          "name": "contentId",
          "type": "uint256"
        }
      ],
      "name": "getContent",
      "outputs": [
        {
          "components": [
            {
              "internalType": "uint256",
              "name": "id",
              "type": "uint256"
            },
            {
              "internalType": "string",
              "name": "url",
              "type": "string"
            },
            {
              "internalType": "string",
              "name": "property",
              "type": "string"
            },
            {
              "internalType": "uint256",
              "name": "keyHash",
              "type": "uint256"
            },
            {
              "internalType": "address",
              "name": "creator",
              "type": "address"
            },
            {
              "internalType": "uint256",
              "name": "price",
              "type": "uint256"
            },
            {
              "internalType": "string",
              "name": "zk",
              "type": "string"
            }
          ],
          "internalType": "struct ContractStorage.Content",
          "name": "",
          "type": "tuple"
        }
      ],
      "stateMutability": "view",
      "type": "function"
    },
    {
      "inputs": [],
      "name": "getNumOfProperties",
      "outputs": [
        {
          "internalType": "uint256",
          "name": "length",
          "type": "uint256"
        }
      ],
      "stateMutability": "view",
      "type": "function"
    },
    {
      "inputs": [
        {
          "internalType": "uint256",
          "name": "id",
          "type": "uint256"
        }
      ],
      "name": "getProperty",
      "outputs": [
        {
          "internalType": "string",
          "name": "",
          "type": "string"
        }
      ],
      "stateMutability": "view",
      "type": "function"
    },
    {
      "inputs": [
        {
          "internalType": "address",
          "name": "_address",
          "type": "address"
        },
        {
          "internalType": "string",
          "name": "zk",
          "type": "string"
        }
      ],
      "name": "getPublicKey",
      "outputs": [
        {
          "internalType": "uint256[2]",
          "name": "publicKey",
          "type": "uint256[2]"
        }
      ],
      "stateMutability": "view",
      "type": "function"
    },
    {
      "inputs": [
        {
          "internalType": "uint256",
          "name": "id",
          "type": "uint256"
        }
      ],
      "name": "getToken",
      "outputs": [
        {
          "components": [
            {
              "internalType": "uint256",
              "name": "id",
              "type": "uint256"
            },
            {
              "internalType": "uint256",
              "name": "contentId",
              "type": "uint256"
            },
            {
              "internalType": "uint256",
              "name": "ciphertext1",
              "type": "uint256"
            },
            {
              "internalType": "uint256",
              "name": "ciphertext2",
              "type": "uint256"
            },
            {
              "internalType": "bool",
              "name": "redeemed",
              "type": "bool"
            }
          ],
          "internalType": "struct ContractStorage.Token",
          "name": "",
          "type": "tuple"
        }
      ],
      "stateMutability": "view",
      "type": "function"
    },
    {
      "inputs": [
        {
          "internalType": "uint256",
          "name": "contentId",
          "type": "uint256"
        }
      ],
      "name": "getTokenIds",
      "outputs": [
        {
          "internalType": "uint256[]",
          "name": "",
          "type": "uint256[]"
        }
      ],
      "stateMutability": "view",
      "type": "function"
    },
    {
      "inputs": [],
      "name": "incrementProperty",
      "outputs": [
        {
          "internalType": "bool",
          "name": "",
          "type": "bool"
        }
      ],
      "stateMutability": "nonpayable",
      "type": "function"
    },
    {
      "inputs": [
        {
          "internalType": "string",
          "name": "",
          "type": "string"
        }
      ],
      "name": "properties",
      "outputs": [
        {
          "internalType": "uint256",
          "name": "",
          "type": "uint256"
        }
      ],
      "stateMutability": "view",
      "type": "function"
    },
    {
      "inputs": [
        {
          "internalType": "address",
          "name": "",
          "type": "address"
        },
        {
          "internalType": "string",
          "name": "",
          "type": "string"
        },
        {
          "internalType": "uint256",
          "name": "",
          "type": "uint256"
        }
      ],
      "name": "publicKeys",
      "outputs": [
        {
          "internalType": "uint256",
          "name": "",
          "type": "uint256"
        }
      ],
      "stateMutability": "view",
      "type": "function"
    },
    {
      "inputs": [
        {
          "internalType": "uint256",
          "name": "",
          "type": "uint256"
        }
      ],
      "name": "tokens",
      "outputs": [
        {
          "internalType": "uint256",
          "name": "id",
          "type": "uint256"
        },
        {
          "internalType": "uint256",
          "name": "contentId",
          "type": "uint256"
        },
        {
          "internalType": "uint256",
          "name": "ciphertext1",
          "type": "uint256"
        },
        {
          "internalType": "uint256",
          "name": "ciphertext2",
          "type": "uint256"
        },
        {
          "internalType": "bool",
          "name": "redeemed",
          "type": "bool"
        }
      ],
      "stateMutability": "view",
      "type": "function"
    }
  ],
  "bytecode": "0x608060405234801561001057600080fd5b50610feb806100206000396000f3fe608060405234801561001057600080fd5b50600436106101005760003560e01c8063771133a311610097578063cc45969611610066578063cc4596961461028f578063d2a7051614610297578063d49ca5581461029f578063e4b50cb8146102b757610100565b8063771133a3146102095780639be8f2a614610234578063aa46a4001461025f578063b5ecf9121461026957610100565b80634f64b2be116100d35780634f64b2be146101865780635274995d146101c357806357991d30146101d6578063718b7643146101f657610100565b80630b7ad54c1461010557806314b514931461012e57806332665ffb146101465780634d75cd4014610166575b600080fd5b610118610113366004610d70565b61030e565b6040516101259190610e6b565b60405180910390f35b6005546101389081565b604051908152602001610125565b610159610154366004610d70565b610584565b6040516101259190610e58565b610179610174366004610c62565b610626565b6040516101259190610de3565b610199610194366004610d70565b61069a565b6040805195865260208601949094529284019190915260608301521515608082015260a001610125565b6101596101d1366004610d70565b6106de565b6101e96101e4366004610d70565b610778565b6040516101259190610e14565b610138610204366004610ce0565b610844565b610138610217366004610d35565b805160208183018101805160008252928201919093012091525481565b610138610242366004610d35565b805160208183018101805160068252928201919093012091525481565b6002546101389081565b61027c610277366004610d70565b610884565b6040516101259796959493929190610efe565b600154610138565b610138610a79565b6102a7610a89565b6040519015158152602001610125565b6102ca6102c5366004610d70565b610a9f565b6040516101259190600060a0820190508251825260208301516020830152604083015160408301526060830151606083015260808301511515608083015292915050565b6103576040518060e001604052806000815260200160608152602001606081526020016000815260200160006001600160a01b0316815260200160008152602001606081525090565b6001828154811061037857634e487b7160e01b600052603260045260246000fd5b90600052602060002090600702016040518060e0016040529081600082015481526020016001820180546103ab90610f66565b80601f01602080910402602001604051908101604052809291908181526020018280546103d790610f66565b80156104245780601f106103f957610100808354040283529160200191610424565b820191906000526020600020905b81548152906001019060200180831161040757829003601f168201915b5050505050815260200160028201805461043d90610f66565b80601f016020809104026020016040519081016040528092919081815260200182805461046990610f66565b80156104b65780601f1061048b576101008083540402835291602001916104b6565b820191906000526020600020905b81548152906001019060200180831161049957829003601f168201915b50505091835250506003820154602082015260048201546001600160a01b03166040820152600582015460608201526006820180546080909201916104fa90610f66565b80601f016020809104026020016040519081016040528092919081815260200182805461052690610f66565b80156105735780601f1061054857610100808354040283529160200191610573565b820191906000526020600020905b81548152906001019060200180831161055657829003601f168201915b50505050508152505090505b919050565b60008181526007602052604090208054606091906105a190610f66565b80601f01602080910402602001604051908101604052809291908181526020018280546105cd90610f66565b801561061a5780601f106105ef5761010080835404028352916020019161061a565b820191906000526020600020905b8154815290600101906020018083116105fd57829003601f168201915b50505050509050919050565b61062e610ba6565b6001600160a01b0384166000908152600860205260409081902090516106579085908590610dd3565b9081526040805191829003602001822082820190915260028282826020028201915b81548152602001906001019080831161067957505050505090509392505050565b600381815481106106aa57600080fd5b6000918252602090912060059091020180546001820154600283015460038401546004909401549294509092909160ff1685565b600760205260009081526040902080546106f790610f66565b80601f016020809104026020016040519081016040528092919081815260200182805461072390610f66565b80156107705780601f1061074557610100808354040283529160200191610770565b820191906000526020600020905b81548152906001019060200180831161075357829003601f168201915b505050505081565b600081815260046020526040812060609161079282610b4b565b905060008167ffffffffffffffff8111156107bd57634e487b7160e01b600052604160045260246000fd5b6040519080825280602002602001820160405280156107e6578160200160208202803683370190505b50905060005b8281101561083b576107fe8482610b5b565b82828151811061081e57634e487b7160e01b600052603260045260246000fd5b60209081029190910101528061083381610fa1565b9150506107ec565b50949350505050565b60086020908152600084815260409020835180850183018051928152908301928501929092209152816002811061087a57600080fd5b0154925083915050565b6001818154811061089457600080fd5b600091825260209091206007909102018054600182018054919350906108b990610f66565b80601f01602080910402602001604051908101604052809291908181526020018280546108e590610f66565b80156109325780601f1061090757610100808354040283529160200191610932565b820191906000526020600020905b81548152906001019060200180831161091557829003601f168201915b50505050509080600201805461094790610f66565b80601f016020809104026020016040519081016040528092919081815260200182805461097390610f66565b80156109c05780601f10610995576101008083540402835291602001916109c0565b820191906000526020600020905b8154815290600101906020018083116109a357829003601f168201915b505050600384015460048501546005860154600687018054969793966001600160a01b039093169550909350906109f690610f66565b80601f0160208091040260200160405190810160405280929190818152602001828054610a2290610f66565b8015610a6f5780601f10610a4457610100808354040283529160200191610a6f565b820191906000526020600020905b815481529060010190602001808311610a5257829003601f168201915b5050505050905087565b6000610a8460055490565b905090565b6000610a99600580546001019055565b50600190565b610ad36040518060a00160405280600081526020016000815260200160008152602001600081526020016000151581525090565b60038281548110610af457634e487b7160e01b600052603260045260246000fd5b60009182526020918290206040805160a0810182526005909302909101805483526001810154938301939093526002830154908201526003820154606082015260049091015460ff16151560808201529050919050565b6000610b55825490565b92915050565b6000610b678383610b6e565b9392505050565b6000826000018281548110610b9357634e487b7160e01b600052603260045260246000fd5b9060005260206000200154905092915050565b60405180604001604052806002906020820280368337509192915050565b80356001600160a01b038116811461057f57600080fd5b600082601f830112610beb578081fd5b813567ffffffffffffffff80821115610c0657610c06610fc8565b604051601f8301601f19908116603f01168101908282118183101715610c2e57610c2e610fc8565b81604052838152866020858801011115610c46578485fd5b8360208701602083013792830160200193909352509392505050565b600080600060408486031215610c76578283fd5b610c7f84610bc4565b9250602084013567ffffffffffffffff80821115610c9b578384fd5b818601915086601f830112610cae578384fd5b813581811115610cbc578485fd5b876020828501011115610ccd578485fd5b6020830194508093505050509250925092565b600080600060608486031215610cf4578283fd5b610cfd84610bc4565b9250602084013567ffffffffffffffff811115610d18578283fd5b610d2486828701610bdb565b925050604084013590509250925092565b600060208284031215610d46578081fd5b813567ffffffffffffffff811115610d5c578182fd5b610d6884828501610bdb565b949350505050565b600060208284031215610d81578081fd5b5035919050565b60008151808452815b81811015610dad57602081850181015186830182015201610d91565b81811115610dbe5782602083870101525b50601f01601f19169290920160200192915050565b6000828483379101908152919050565b60408101818360005b6002811015610e0b578151835260209283019290910190600101610dec565b50505092915050565b6020808252825182820181905260009190848201906040850190845b81811015610e4c57835183529284019291840191600101610e30565b50909695505050505050565b600060208252610b676020830184610d88565b60006020825282516020830152602083015160e06040840152610e92610100840182610d88565b90506040840151601f1980858403016060860152610eb08383610d88565b9250606086015160808601526001600160a01b0360808701511660a086015260a086015160c086015260c08601519150808584030160e086015250610ef58282610d88565b95945050505050565b600088825260e06020830152610f1760e0830189610d88565b8281036040840152610f298189610d88565b90508660608401526001600160a01b03861660808401528460a084015282810360c0840152610f588185610d88565b9a9950505050505050505050565b600181811c90821680610f7a57607f821691505b60208210811415610f9b57634e487b7160e01b600052602260045260246000fd5b50919050565b6000600019821415610fc157634e487b7160e01b81526011600452602481fd5b5060010190565b634e487b7160e01b600052604160045260246000fdfea164736f6c6343000803000a",
  "linkReferences": {},
  "deployedLinkReferences": {}
}