{
  "_format": "hh-sol-artifact-1",
  "contractName": "Verifier",
  "sourceName": "contracts/Verifier.sol",
  "abi": [
    {
      "inputs": [
        {
          "internalType": "uint256[2]",
          "name": "a",
          "type": "uint256[2]"
        },
        {
          "internalType": "uint256[2][2]",
          "name": "b",
          "type": "uint256[2][2]"
        },
        {
          "internalType": "uint256[2]",
          "name": "c",
          "type": "uint256[2]"
        },
        {
          "internalType": "uint256[5]",
          "name": "input",
          "type": "uint256[5]"
        }
      ],
      "name": "verifyEncryptionProof",
      "outputs": [
        {
          "internalType": "bool",
          "name": "",
          "type": "bool"
        }
      ],
      "stateMutability": "view",
      "type": "function"
    },
    {
      "inputs": [
        {
          "internalType": "uint256[2]",
          "name": "a",
          "type": "uint256[2]"
        },
        {
          "internalType": "uint256[2][2]",
          "name": "b",
          "type": "uint256[2][2]"
        },
        {
          "internalType": "uint256[2]",
          "name": "c",
          "type": "uint256[2]"
        },
        {
          "internalType": "uint256[5]",
          "name": "input",
          "type": "uint256[5]"
        }
      ],
      "name": "verifyHashProof",
      "outputs": [
        {
          "internalType": "bool",
          "name": "",
          "type": "bool"
        }
      ],
      "stateMutability": "view",
      "type": "function"
    },
    {
      "inputs": [
        {
          "internalType": "uint256[2]",
          "name": "a",
          "type": "uint256[2]"
        },
        {
          "internalType": "uint256[2][2]",
          "name": "b",
          "type": "uint256[2][2]"
        },
        {
          "internalType": "uint256[2]",
          "name": "c",
          "type": "uint256[2]"
        },
        {
          "internalType": "uint256[]",
          "name": "input",
          "type": "uint256[]"
        },
        {
          "components": [
            {
              "components": [
                {
                  "internalType": "uint256",
                  "name": "X",
                  "type": "uint256"
                },
                {
                  "internalType": "uint256",
                  "name": "Y",
                  "type": "uint256"
                }
              ],
              "internalType": "struct Pairing.G1Point",
              "name": "alfa1",
              "type": "tuple"
            },
            {
              "components": [
                {
                  "internalType": "uint256[2]",
                  "name": "X",
                  "type": "uint256[2]"
                },
                {
                  "internalType": "uint256[2]",
                  "name": "Y",
                  "type": "uint256[2]"
                }
              ],
              "internalType": "struct Pairing.G2Point",
              "name": "beta2",
              "type": "tuple"
            },
            {
              "components": [
                {
                  "internalType": "uint256[2]",
                  "name": "X",
                  "type": "uint256[2]"
                },
                {
                  "internalType": "uint256[2]",
                  "name": "Y",
                  "type": "uint256[2]"
                }
              ],
              "internalType": "struct Pairing.G2Point",
              "name": "gamma2",
              "type": "tuple"
            },
            {
              "components": [
                {
                  "internalType": "uint256[2]",
                  "name": "X",
                  "type": "uint256[2]"
                },
                {
                  "internalType": "uint256[2]",
                  "name": "Y",
                  "type": "uint256[2]"
                }
              ],
              "internalType": "struct Pairing.G2Point",
              "name": "delta2",
              "type": "tuple"
            },
            {
              "components": [
                {
                  "internalType": "uint256",
                  "name": "X",
                  "type": "uint256"
                },
                {
                  "internalType": "uint256",
                  "name": "Y",
                  "type": "uint256"
                }
              ],
              "internalType": "struct Pairing.G1Point[]",
              "name": "IC",
              "type": "tuple[]"
            }
          ],
          "internalType": "struct Verifier.VerifyingKey",
          "name": "vk",
          "type": "tuple"
        }
      ],
      "name": "verifyProof",
      "outputs": [
        {
          "internalType": "bool",
          "name": "",
          "type": "bool"
        }
      ],
      "stateMutability": "view",
      "type": "function"
    }
  ],
  "bytecode": "0x611e7161003a600b82828239805160001a60731461002d57634e487b7160e01b600052600060045260246000fd5b30600052607381538281f3fe730000000000000000000000000000000000000000301460806040526004361061004b5760003560e01c8063206c60411461005057806357c2508014610077578063c8c03ba31461008a575b600080fd5b61006361005e366004611bfb565b61009d565b604051901515815260200160405180910390f35b610063610085366004611c65565b61014b565b610063610098366004611bfb565b6101ed565b60408051600580825260c082019092526000918291906020820160a08036833701905050905060005b6005811015610131578381600581106100ef57634e487b7160e01b600052603260045260246000fd5b602002015182828151811061011457634e487b7160e01b600052603260045260246000fd5b60209081029190910101528061012981611dfd565b9150506100c6565b5061014186868684610085610291565b9695505050505050565b6000610155611866565b604080518082018252885181526020808a01518183015290835281516080810183528851518184019081528951830151606083015281528251808401845289830180515182525183015181840152818301528382015281518083018352875181528782015191810191909152908201526101d084828561085c565b6101de5760019150506101e4565b60009150505b95945050505050565b60408051600580825260c082019092526000918291906020820160a08036833701905050905060005b60058110156102815783816005811061023f57634e487b7160e01b600052603260045260246000fd5b602002015182828151811061026457634e487b7160e01b600052603260045260246000fd5b60209081029190910101528061027981611dfd565b915050610216565b5061014186868684610085610a8b565b6102996118b7565b6040805180820182527f2b6d4650a4a9984dd255a254717ce985d4a2625229fa63ba1268f0c8f97af9eb81527f22f3991d50b793a3660fa6ad8ce156ac3eb478b77e8b0b74ffdf4be654c5610d6020808301919091529083528151608080820184527f0e27d2438600b41133385b48fc242556e81b44ab4d0ee9a3376da7315876c2ba8285019081527f074f8374c9ddae90032fb99308af80e087027dac3ec8f203bd7ee80d8b54bb44606080850191909152908352845180860186527f218374fdb8b41d2b36cdf8b50c9a925631381f50fa6b9ad5d281a172ad21293181527f0b04b6269c1b07424f6a6985dfab0cefd704a35cae92e15048f533f4c5da412b818601528385015285840192909252835180820185527f198e9393920d483a7260bfb731fb5d25f1aa493335a9e71297e485b7aef312c28186019081527f1800deef121f1e76426a00665e5c4479674322d4f75edadd46debd5cd992f6ed828501528152845180860186527f090689d0585ff075ec9e99ad690c3395bc4b313370b38ef355acdadcd122975b81527f12c85ea5db8c6deb4aab71808dcb408fe3d1e7690c43d37b4ce6cc0166fa7daa818601528185015285850152835190810184527f187dfd92e719cd335fec9868d596e847c0a6a9c3ce8fb650fd7241df14dbcdd68185019081527f0597134ad9f10975e7f84d2cef6b5fdd0d0db6a7c09392522406567ac086d316828401528152835180850185527f10e7fdf5ad93d2ce02e82a0f4bfcf7eb249faa09b8b20cb153815bd83265e7f381527f2693890a80919bfce04dd8182a121053eaa1404a7b97116318226710512700588185015281840152908401528151600680825260e08201909352919082015b604080518082019091526000808252602082015281526020019060019003908161051457505060808201908152604080518082019091527f0eb399b0724d334622a1d165f9dbff5a36c356567e5018974850e7b3bfcb8fdb81527f13036f47624adddeeceadfd99e11e5ea6eaeb4abce89e44ab57ee1481bdcc0fd6020820152905180516000906105b557634e487b7160e01b600052603260045260246000fd5b602002602001018190525060405180604001604052807f1a49b48c1b6be2198a9bf11336e007a7fcbd0ffd8ae2d64bb3dbdfc7d99cd26b81526020017f10e461542f85b04484bb7e9325be484845975ed154dfe8546379685985c7ca9a815250816080015160018151811061063a57634e487b7160e01b600052603260045260246000fd5b602002602001018190525060405180604001604052807f1d4597ea66618a073e999c458fbfc7a2d011d86eb43e787ab2adb7e7cc8ac62781526020017f049c56cd6d735592c58242c4fdc8706e1dc4c942683ee1d58b8cd8595278c86781525081608001516002815181106106bf57634e487b7160e01b600052603260045260246000fd5b602002602001018190525060405180604001604052807f25c002ae05cbd1d4329c8cf566511c4b084c518fcca3d8df37ca8ed5f386f8b881526020017f2a659e6f0eab0de005f43d161ff54d039c278721285b754c91c3363bfa687cf5815250816080015160038151811061074457634e487b7160e01b600052603260045260246000fd5b602002602001018190525060405180604001604052807f07b610852aeaf72b7291106429efa4851bd22e80a574e1a78a77c8b1c34f19a081526020017f1f747910d2b4918225fc75d19f0d85f209d77bdeee23030312a3498d505f847681525081608001516004815181106107c957634e487b7160e01b600052603260045260246000fd5b602002602001018190525060405180604001604052807f261f8ea1b04b3b6a4dcaa327331ac747c5e8c62d024279c7ac072c28984032bc81526020017f288177a6af1ec0a980bdbd803d11d2819f89b3121ea990a8e8ae670b1ad2cdf4815250816080015160058151811061084e57634e487b7160e01b600052603260045260246000fd5b602002602001018190525090565b60808101515183516000917f30644e72e131a029b85045b68181585d2833e84879b9709143e1f593f000000191610894906001611daf565b146108e65760405162461bcd60e51b815260206004820152601260248201527f76657269666965722d6261642d696e707574000000000000000000000000000060448201526064015b60405180910390fd5b604080518082019091526000808252602082018190525b8651811015610a01578287828151811061092757634e487b7160e01b600052603260045260246000fd5b60200260200101511061097c5760405162461bcd60e51b815260206004820152601f60248201527f76657269666965722d6774652d736e61726b2d7363616c61722d6669656c640060448201526064016108dd565b6109ed826109e887608001518460016109959190611daf565b815181106109b357634e487b7160e01b600052603260045260246000fd5b60200260200101518a85815181106109db57634e487b7160e01b600052603260045260246000fd5b6020026020010151611048565b6110ef565b9150806109f981611dfd565b9150506108fd565b50610a38818560800151600081518110610a2b57634e487b7160e01b600052603260045260246000fd5b60200260200101516110ef565b9050610a6e610a4a8660000151611192565b8660200151866000015187602001518589604001518b604001518b60600151611233565b610a7d57600192505050610a84565b6000925050505b9392505050565b610a936118b7565b6040805180820182527f2b6d4650a4a9984dd255a254717ce985d4a2625229fa63ba1268f0c8f97af9eb81527f22f3991d50b793a3660fa6ad8ce156ac3eb478b77e8b0b74ffdf4be654c5610d6020808301919091529083528151608080820184527f0e27d2438600b41133385b48fc242556e81b44ab4d0ee9a3376da7315876c2ba8285019081527f074f8374c9ddae90032fb99308af80e087027dac3ec8f203bd7ee80d8b54bb44606080850191909152908352845180860186527f218374fdb8b41d2b36cdf8b50c9a925631381f50fa6b9ad5d281a172ad21293181527f0b04b6269c1b07424f6a6985dfab0cefd704a35cae92e15048f533f4c5da412b818601528385015285840192909252835180820185527f198e9393920d483a7260bfb731fb5d25f1aa493335a9e71297e485b7aef312c28186019081527f1800deef121f1e76426a00665e5c4479674322d4f75edadd46debd5cd992f6ed828501528152845180860186527f090689d0585ff075ec9e99ad690c3395bc4b313370b38ef355acdadcd122975b81527f12c85ea5db8c6deb4aab71808dcb408fe3d1e7690c43d37b4ce6cc0166fa7daa818601528185015285850152835190810184527f187dfd92e719cd335fec9868d596e847c0a6a9c3ce8fb650fd7241df14dbcdd68185019081527f0597134ad9f10975e7f84d2cef6b5fdd0d0db6a7c09392522406567ac086d316828401528152835180850185527f10e7fdf5ad93d2ce02e82a0f4bfcf7eb249faa09b8b20cb153815bd83265e7f381527f2693890a80919bfce04dd8182a121053eaa1404a7b97116318226710512700588185015281840152908401528151600680825260e08201909352919082015b6040805180820190915260008082526020820152815260200190600190039081610d0e57505060808201908152604080518082019091527f0ece45a03512ee6608feaeda8495ecb54c39214a3cfc26776df140179fa188f981527f1f52fb8e0294d2322f1fbe27a563cfeff6df2617aceb2cd213ca41c62e84e176602082015290518051600090610daf57634e487b7160e01b600052603260045260246000fd5b602002602001018190525060405180604001604052807f3030df26534a6ce5dda4378b4cd9e85e4b792bbee7c31a7709837bcfd375c1b281526020017f1815e360c0425f637611da0641bd0a07f024e62e912d02df483e44298b58b2bc8152508160800151600181518110610e3457634e487b7160e01b600052603260045260246000fd5b602002602001018190525060405180604001604052807f1edae2e1a7a88df700c694ffd573d7a844adc70c682646890b86e34ad211646e81526020017f023ecc291267e057fb894d45b99520ab1798748b597927cd98e8f970015f2e118152508160800151600281518110610eb957634e487b7160e01b600052603260045260246000fd5b602002602001018190525060405180604001604052807f031c0ee7c4d0150cb01f577a4b4fbc7ae130af0d8290a024d03d13accecec5b981526020017f0c29c9f70d760d25b0d076ffbacbaec129139dfa520135b7a0b8af6cfef5ca6a8152508160800151600381518110610f3e57634e487b7160e01b600052603260045260246000fd5b602002602001018190525060405180604001604052807f1cffd1ad1c9e3a25e2ff069c059c7e53f8c43eb63e9d624c10aaa151c83fda8481526020017f11b806d9865e20ea697ab9702aac89c2c50fe7d912967af6ca832d0b2cf559f48152508160800151600481518110610fc357634e487b7160e01b600052603260045260246000fd5b602002602001018190525060405180604001604052807f0ddbffde7f8580283fde45a0c79c811980e27a4bdb71b87f4db8cce45ec23d6d81526020017f2902595b6f22ac3437a57703f39b78d6d8bf536460f1eecd499c5a889defef66815250816080015160058151811061084e57634e487b7160e01b600052603260045260246000fd5b6040805180820190915260008082526020820152611064611908565b835181526020808501519082015260408101839052600060608360808460076107d05a03fa905080801561109757611099565bfe5b50806110e75760405162461bcd60e51b815260206004820152601260248201527f70616972696e672d6d756c2d6661696c6564000000000000000000000000000060448201526064016108dd565b505092915050565b604080518082019091526000808252602082015261110b611926565b8351815260208085015181830152835160408301528301516060808301919091526000908360c08460066107d05a03fa90508080156110975750806110e75760405162461bcd60e51b815260206004820152601260248201527f70616972696e672d6164642d6661696c6564000000000000000000000000000060448201526064016108dd565b604080518082019091526000808252602082015281517f30644e72e131a029b85045b68181585d97816a916871ca8d3c208c16d87cfd47901580156111d957506020830151155b156111f9575050604080518082019091526000808252602082015261122e565b60405180604001604052808460000151815260200182856020015161121e9190611e18565b6112289084611de6565b90529150505b919050565b60408051600480825260a08201909252600091829190816020015b604080518082019091526000808252602082015281526020019060019003908161124e57505060408051600480825260a0820190925291925060009190602082015b611298611944565b8152602001906001900390816112905790505090508a826000815181106112cf57634e487b7160e01b600052603260045260246000fd5b602002602001018190525088826001815181106112fc57634e487b7160e01b600052603260045260246000fd5b6020026020010181905250868260028151811061132957634e487b7160e01b600052603260045260246000fd5b6020026020010181905250848260038151811061135657634e487b7160e01b600052603260045260246000fd5b6020026020010181905250898160008151811061138357634e487b7160e01b600052603260045260246000fd5b602002602001018190525087816001815181106113b057634e487b7160e01b600052603260045260246000fd5b602002602001018190525085816002815181106113dd57634e487b7160e01b600052603260045260246000fd5b6020026020010181905250838160038151811061140a57634e487b7160e01b600052603260045260246000fd5b602002602001018190525061141f828261142e565b9b9a5050505050505050505050565b600081518351146114815760405162461bcd60e51b815260206004820152601660248201527f70616972696e672d6c656e677468732d6661696c65640000000000000000000060448201526064016108dd565b82516000611490826006611dc7565b905060008167ffffffffffffffff8111156114bb57634e487b7160e01b600052604160045260246000fd5b6040519080825280602002602001820160405280156114e4578160200160208202803683370190505b50905060005b838110156117e35786818151811061151257634e487b7160e01b600052603260045260246000fd5b6020026020010151600001518282600661152c9190611dc7565b611537906000611daf565b8151811061155557634e487b7160e01b600052603260045260246000fd5b60200260200101818152505086818151811061158157634e487b7160e01b600052603260045260246000fd5b6020026020010151602001518282600661159b9190611dc7565b6115a6906001611daf565b815181106115c457634e487b7160e01b600052603260045260246000fd5b6020026020010181815250508581815181106115f057634e487b7160e01b600052603260045260246000fd5b6020908102919091010151515182611609836006611dc7565b611614906002611daf565b8151811061163257634e487b7160e01b600052603260045260246000fd5b60200260200101818152505085818151811061165e57634e487b7160e01b600052603260045260246000fd5b60209081029190910181015151015182611679836006611dc7565b611684906003611daf565b815181106116a257634e487b7160e01b600052603260045260246000fd5b6020026020010181815250508581815181106116ce57634e487b7160e01b600052603260045260246000fd5b6020026020010151602001516000600281106116fa57634e487b7160e01b600052603260045260246000fd5b60200201518261170b836006611dc7565b611716906004611daf565b8151811061173457634e487b7160e01b600052603260045260246000fd5b60200260200101818152505085818151811061176057634e487b7160e01b600052603260045260246000fd5b60200260200101516020015160016002811061178c57634e487b7160e01b600052603260045260246000fd5b60200201518261179d836006611dc7565b6117a8906005611daf565b815181106117c657634e487b7160e01b600052603260045260246000fd5b6020908102919091010152806117db81611dfd565b9150506114ea565b506117ec611964565b6000602082602086026020860160086107d05a03fa90508080156110975750806118585760405162461bcd60e51b815260206004820152601560248201527f70616972696e672d6f70636f64652d6661696c6564000000000000000000000060448201526064016108dd565b505115159695505050505050565b6040805160a081019091526000606082018181526080830191909152815260208101611890611944565b81526020016118b2604051806040016040528060008152602001600081525090565b905290565b6040805160e08101909152600060a0820181815260c08301919091528152602081016118e1611944565b81526020016118ee611944565b81526020016118fb611944565b8152602001606081525090565b60405180606001604052806003906020820280368337509192915050565b60405180608001604052806004906020820280368337509192915050565b6040518060400160405280611957611982565b81526020016118b2611982565b60405180602001604052806001906020820280368337509192915050565b60405180604001604052806002906020820280368337509192915050565b600067ffffffffffffffff8311156119ba576119ba611e4e565b8260051b6119c781611d5a565b915081838683860111156119da57600080fd5b600092505b858310156119fe578035825260019290920191602091820191016119df565b5050509392505050565b600082601f830112611a18578081fd5b6040611a2381611d5a565b808486608087011115611a34578485fd5b845b6002811015611a5d57611a498883611a69565b845260209093019290840190600101611a36565b50909695505050505050565b600082601f830112611a79578081fd5b610a84836002846119a0565b600060408284031215611a96578081fd5b611aa06040611d5a565b9050813581526020820135602082015292915050565b600060808284031215611ac7578081fd5b611ad16040611d5a565b9050611add8383611a69565b8152611aec8360408401611a69565b602082015292915050565b60006101e08284031215611b09578081fd5b611b1360a0611d5a565b9050611b1f8383611a85565b81526040611b2f84828501611ab6565b60208181850152611b438660c08701611ab6565b83850152611b55866101408701611ab6565b60608501526101c0850135915067ffffffffffffffff821115611b7757600080fd5b818501915085601f830112611b8b57600080fd5b8135611b9e611b9982611d8b565b611d5a565b80828252838201915083850189858560061b8801011115611bbe57600080fd5b600095505b83861015611be957611bd58a82611a85565b835260019590950194918401918601611bc3565b50608087015250939695505050505050565b6000806000806101a08587031215611c11578384fd5b611c1b8686611a69565b9350611c2a8660408701611a08565b9250611c398660c08701611a69565b91508561011f860112611c4a578081fd5b611c5a86600561010088016119a0565b905092959194509250565b60008060008060006101408688031215611c7d578081fd5b611c878787611a69565b9450611c968760408801611a08565b9350611ca58760c08801611a69565b925061010086013567ffffffffffffffff80821115611cc2578283fd5b818801915088601f830112611cd5578283fd5b81356020611ce5611b9983611d8b565b8083825282820191508286018d848660051b8901011115611d04578788fd5b8796505b84871015611d26578035835260019690960195918301918301611d08565b509650505050610120880135915080821115611d40578283fd5b50611d4d88828901611af7565b9150509295509295909350565b604051601f8201601f1916810167ffffffffffffffff81118282101715611d8357611d83611e4e565b604052919050565b600067ffffffffffffffff821115611da557611da5611e4e565b5060051b60200190565b60008219821115611dc257611dc2611e38565b500190565b6000816000190483118215151615611de157611de1611e38565b500290565b600082821015611df857611df8611e38565b500390565b6000600019821415611e1157611e11611e38565b5060010190565b600082611e3357634e487b7160e01b81526012600452602481fd5b500690565b634e487b7160e01b600052601160045260246000fd5b634e487b7160e01b600052604160045260246000fdfea164736f6c6343000803000a",
  "linkReferences": {},
  "deployedLinkReferences": {}
}